{
  "contractName": "FundingVaultToken",
  "abi": [
    {
      "inputs": [
        {
          "internalType": "address",
          "name": "fundingVault",
          "type": "address"
        }
      ],
      "stateMutability": "nonpayable",
      "type": "constructor"
    },
    {
      "anonymous": false,
      "inputs": [
        {
          "indexed": true,
          "internalType": "address",
          "name": "owner",
          "type": "address"
        },
        {
          "indexed": true,
          "internalType": "address",
          "name": "approved",
          "type": "address"
        },
        {
          "indexed": true,
          "internalType": "uint256",
          "name": "tokenId",
          "type": "uint256"
        }
      ],
      "name": "Approval",
      "type": "event"
    },
    {
      "anonymous": false,
      "inputs": [
        {
          "indexed": true,
          "internalType": "address",
          "name": "owner",
          "type": "address"
        },
        {
          "indexed": true,
          "internalType": "address",
          "name": "operator",
          "type": "address"
        },
        {
          "indexed": false,
          "internalType": "bool",
          "name": "approved",
          "type": "bool"
        }
      ],
      "name": "ApprovalForAll",
      "type": "event"
    },
    {
      "anonymous": false,
      "inputs": [
        {
          "indexed": true,
          "internalType": "address",
          "name": "from",
          "type": "address"
        },
        {
          "indexed": true,
          "internalType": "address",
          "name": "to",
          "type": "address"
        },
        {
          "indexed": true,
          "internalType": "uint256",
          "name": "tokenId",
          "type": "uint256"
        }
      ],
      "name": "Transfer",
      "type": "event"
    },
    {
      "inputs": [
        {
          "internalType": "address",
          "name": "to",
          "type": "address"
        },
        {
          "internalType": "uint256",
          "name": "tokenId",
          "type": "uint256"
        }
      ],
      "name": "approve",
      "outputs": [],
      "stateMutability": "nonpayable",
      "type": "function"
    },
    {
      "inputs": [
        {
          "internalType": "address",
          "name": "owner",
          "type": "address"
        }
      ],
      "name": "balanceOf",
      "outputs": [
        {
          "internalType": "uint256",
          "name": "",
          "type": "uint256"
        }
      ],
      "stateMutability": "view",
      "type": "function",
      "constant": true
    },
    {
      "inputs": [
        {
          "internalType": "uint256",
          "name": "tokenId",
          "type": "uint256"
        }
      ],
      "name": "getApproved",
      "outputs": [
        {
          "internalType": "address",
          "name": "",
          "type": "address"
        }
      ],
      "stateMutability": "view",
      "type": "function",
      "constant": true
    },
    {
      "inputs": [
        {
          "internalType": "address",
          "name": "owner",
          "type": "address"
        },
        {
          "internalType": "address",
          "name": "operator",
          "type": "address"
        }
      ],
      "name": "isApprovedForAll",
      "outputs": [
        {
          "internalType": "bool",
          "name": "",
          "type": "bool"
        }
      ],
      "stateMutability": "view",
      "type": "function",
      "constant": true
    },
    {
      "inputs": [],
      "name": "name",
      "outputs": [
        {
          "internalType": "string",
          "name": "",
          "type": "string"
        }
      ],
      "stateMutability": "view",
      "type": "function",
      "constant": true
    },
    {
      "inputs": [
        {
          "internalType": "uint256",
          "name": "tokenId",
          "type": "uint256"
        }
      ],
      "name": "ownerOf",
      "outputs": [
        {
          "internalType": "address",
          "name": "",
          "type": "address"
        }
      ],
      "stateMutability": "view",
      "type": "function",
      "constant": true
    },
    {
      "inputs": [
        {
          "internalType": "address",
          "name": "from",
          "type": "address"
        },
        {
          "internalType": "address",
          "name": "to",
          "type": "address"
        },
        {
          "internalType": "uint256",
          "name": "tokenId",
          "type": "uint256"
        }
      ],
      "name": "safeTransferFrom",
      "outputs": [],
      "stateMutability": "nonpayable",
      "type": "function"
    },
    {
      "inputs": [
        {
          "internalType": "address",
          "name": "from",
          "type": "address"
        },
        {
          "internalType": "address",
          "name": "to",
          "type": "address"
        },
        {
          "internalType": "uint256",
          "name": "tokenId",
          "type": "uint256"
        },
        {
          "internalType": "bytes",
          "name": "data",
          "type": "bytes"
        }
      ],
      "name": "safeTransferFrom",
      "outputs": [],
      "stateMutability": "nonpayable",
      "type": "function"
    },
    {
      "inputs": [
        {
          "internalType": "address",
          "name": "operator",
          "type": "address"
        },
        {
          "internalType": "bool",
          "name": "approved",
          "type": "bool"
        }
      ],
      "name": "setApprovalForAll",
      "outputs": [],
      "stateMutability": "nonpayable",
      "type": "function"
    },
    {
      "inputs": [
        {
          "internalType": "bytes4",
          "name": "interfaceId",
          "type": "bytes4"
        }
      ],
      "name": "supportsInterface",
      "outputs": [
        {
          "internalType": "bool",
          "name": "",
          "type": "bool"
        }
      ],
      "stateMutability": "view",
      "type": "function",
      "constant": true
    },
    {
      "inputs": [],
      "name": "symbol",
      "outputs": [
        {
          "internalType": "string",
          "name": "",
          "type": "string"
        }
      ],
      "stateMutability": "view",
      "type": "function",
      "constant": true
    },
    {
      "inputs": [
        {
          "internalType": "uint256",
          "name": "index",
          "type": "uint256"
        }
      ],
      "name": "tokenByIndex",
      "outputs": [
        {
          "internalType": "uint256",
          "name": "",
          "type": "uint256"
        }
      ],
      "stateMutability": "view",
      "type": "function",
      "constant": true
    },
    {
      "inputs": [
        {
          "internalType": "address",
          "name": "owner",
          "type": "address"
        },
        {
          "internalType": "uint256",
          "name": "index",
          "type": "uint256"
        }
      ],
      "name": "tokenOfOwnerByIndex",
      "outputs": [
        {
          "internalType": "uint256",
          "name": "",
          "type": "uint256"
        }
      ],
      "stateMutability": "view",
      "type": "function",
      "constant": true
    },
    {
      "inputs": [
        {
          "internalType": "uint256",
          "name": "tokenId",
          "type": "uint256"
        }
      ],
      "name": "tokenURI",
      "outputs": [
        {
          "internalType": "string",
          "name": "",
          "type": "string"
        }
      ],
      "stateMutability": "view",
      "type": "function",
      "constant": true
    },
    {
      "inputs": [],
      "name": "totalSupply",
      "outputs": [
        {
          "internalType": "uint256",
          "name": "",
          "type": "uint256"
        }
      ],
      "stateMutability": "view",
      "type": "function",
      "constant": true
    },
    {
      "inputs": [
        {
          "internalType": "address",
          "name": "from",
          "type": "address"
        },
        {
          "internalType": "address",
          "name": "to",
          "type": "address"
        },
        {
          "internalType": "uint256",
          "name": "tokenId",
          "type": "uint256"
        }
      ],
      "name": "transferFrom",
      "outputs": [],
      "stateMutability": "nonpayable",
      "type": "function"
    },
    {
      "stateMutability": "payable",
      "type": "receive",
      "payable": true
    },
    {
      "inputs": [],
      "name": "getVault",
      "outputs": [
        {
          "internalType": "address",
          "name": "",
          "type": "address"
        }
      ],
      "stateMutability": "view",
      "type": "function",
      "constant": true
    },
    {
      "inputs": [
        {
          "internalType": "uint64",
          "name": "tokenId",
          "type": "uint64"
        },
        {
          "internalType": "address",
          "name": "targetAddr",
          "type": "address"
        }
      ],
      "name": "tokenUpdate",
      "outputs": [],
      "stateMutability": "nonpayable",
      "type": "function"
    }
  ],
  "bytecode": "0x608060405234801562000010575f80fd5b506040516200208b3803806200208b8339810160408190526200003391620000c7565b60405180604001604052806012815260200171119d5b991a5b99d5985d5b1d0811dc985b9d60721b81525060405180604001604052806007815260200166119591dc985b9d60ca1b815250815f90816200008e919062000196565b5060016200009d828262000196565b5050600a80546001600160a01b0319166001600160a01b039390931692909217909155506200025e565b5f60208284031215620000d8575f80fd5b81516001600160a01b0381168114620000ef575f80fd5b9392505050565b634e487b7160e01b5f52604160045260245ffd5b600181811c908216806200011f57607f821691505b6020821081036200013e57634e487b7160e01b5f52602260045260245ffd5b50919050565b601f82111562000191575f81815260208120601f850160051c810160208610156200016c5750805b601f850160051c820191505b818110156200018d5782815560010162000178565b5050505b505050565b81516001600160401b03811115620001b257620001b2620000f6565b620001ca81620001c384546200010a565b8462000144565b602080601f83116001811462000200575f8415620001e85750858301515b5f19600386901b1c1916600185901b1785556200018d565b5f85815260208120601f198616915b8281101562000230578886015182559484019460019091019084016200020f565b50858210156200024e57878501515f19600388901b60f8161c191681555b5050505050600190811b01905550565b611e1f806200026c5f395ff3fe608060405260043610610108575f3560e01c80634f6ccce71161009257806395d89b411161006257806395d89b411461037f578063a22cb46514610393578063b88d4fde146103b2578063c87b56dd146103d1578063e985e9c5146103f0575f80fd5b80634f6ccce7146103055780636352211e1461032457806370a08231146103435780638d928af814610362575f80fd5b80630e242232116100d85780630e2422321461026b57806318160ddd1461028a57806323b872dd146102a85780632f745c59146102c757806342842e0e146102e6575f80fd5b806301ffc9a7146101c057806306fdde03146101f4578063081812fc14610215578063095ea7b31461024c575f80fd5b366101bc5734156101ba57600a546040515f916001600160a01b03169034908381818185875af1925050503d805f811461015d576040519150601f19603f3d011682016040523d82523d5f602084013e610162565b606091505b50509050806101b85760405162461bcd60e51b815260206004820152601760248201527f6661696c656420746f20666f727761726420657468657200000000000000000060448201526064015b60405180910390fd5b505b005b5f80fd5b3480156101cb575f80fd5b506101df6101da3660046118a2565b610437565b60405190151581526020015b60405180910390f35b3480156101ff575f80fd5b50610208610461565b6040516101eb919061190a565b348015610220575f80fd5b5061023461022f36600461191c565b6104f0565b6040516001600160a01b0390911681526020016101eb565b348015610257575f80fd5b506101ba61026636600461194e565b610515565b348015610276575f80fd5b506101ba610285366004611976565b610629565b348015610295575f80fd5b506008545b6040519081526020016101eb565b3480156102b3575f80fd5b506101ba6102c23660046119b5565b610793565b3480156102d2575f80fd5b5061029a6102e136600461194e565b6107c4565b3480156102f1575f80fd5b506101ba6103003660046119b5565b610858565b348015610310575f80fd5b5061029a61031f36600461191c565b610872565b34801561032f575f80fd5b5061023461033e36600461191c565b610902565b34801561034e575f80fd5b5061029a61035d3660046119ee565b610961565b34801561036d575f80fd5b50600a546001600160a01b0316610234565b34801561038a575f80fd5b506102086109e5565b34801561039e575f80fd5b506101ba6103ad366004611a07565b6109f4565b3480156103bd575f80fd5b506101ba6103cc366004611a54565b6109ff565b3480156103dc575f80fd5b506102086103eb36600461191c565b610a37565b3480156103fb575f80fd5b506101df61040a366004611b29565b6001600160a01b039182165f90815260056020908152604080832093909416825291909152205460ff1690565b5f6001600160e01b0319821663780e9d6360e01b148061045b575061045b82610a9b565b92915050565b60605f805461046f90611b43565b80601f016020809104026020016040519081016040528092919081815260200182805461049b90611b43565b80156104e65780601f106104bd576101008083540402835291602001916104e6565b820191905f5260205f20905b8154815290600101906020018083116104c957829003601f168201915b5050505050905090565b5f6104fa82610aea565b505f908152600460205260409020546001600160a01b031690565b5f61051f82610902565b9050806001600160a01b0316836001600160a01b03160361058c5760405162461bcd60e51b815260206004820152602160248201527f4552433732313a20617070726f76616c20746f2063757272656e74206f776e656044820152603960f91b60648201526084016101af565b336001600160a01b03821614806105a857506105a8813361040a565b61061a5760405162461bcd60e51b815260206004820152603d60248201527f4552433732313a20617070726f76652063616c6c6572206973206e6f7420746f60448201527f6b656e206f776e6572206f7220617070726f76656420666f7220616c6c00000060648201526084016101af565b6106248383610b4b565b505050565b600a546001600160a01b0316336001600160a01b0316146106815760405162461bcd60e51b81526020600482015260126024820152711b9bdd081d985d5b1d0818dbdb9d1c9858dd60721b60448201526064016101af565b6001600160a01b038116156107595767ffffffffffffffff82165f908152600260205260409020546001600160a01b03166106ce576106ca818367ffffffffffffffff16610bb8565b5050565b806001600160a01b03166107008367ffffffffffffffff165f908152600260205260409020546001600160a01b031690565b6001600160a01b0316146106ca576106ca6107398367ffffffffffffffff165f908152600260205260409020546001600160a01b031690565b828467ffffffffffffffff1660405180602001604052805f815250610bd1565b67ffffffffffffffff82165f908152600260205260409020546001600160a01b0316156106ca576106ca8267ffffffffffffffff16610c04565b61079d3382610ca3565b6107b95760405162461bcd60e51b81526004016101af90611b7b565b610624838383610d20565b5f6107ce83610961565b82106108305760405162461bcd60e51b815260206004820152602b60248201527f455243373231456e756d657261626c653a206f776e657220696e646578206f7560448201526a74206f6620626f756e647360a81b60648201526084016101af565b506001600160a01b03919091165f908152600660209081526040808320938352929052205490565b61062483838360405180602001604052805f8152506109ff565b5f61087c60085490565b82106108df5760405162461bcd60e51b815260206004820152602c60248201527f455243373231456e756d657261626c653a20676c6f62616c20696e646578206f60448201526b7574206f6620626f756e647360a01b60648201526084016101af565b600882815481106108f2576108f2611bc8565b905f5260205f2001549050919050565b5f818152600260205260408120546001600160a01b03168061045b5760405162461bcd60e51b8152602060048201526018602482015277115490cdcc8c4e881a5b9d985b1a59081d1bdad95b88125160421b60448201526064016101af565b5f6001600160a01b0382166109ca5760405162461bcd60e51b815260206004820152602960248201527f4552433732313a2061646472657373207a65726f206973206e6f7420612076616044820152683634b21037bbb732b960b91b60648201526084016101af565b506001600160a01b03165f9081526003602052604090205490565b60606001805461046f90611b43565b6106ca338383610e8f565b610a093383610ca3565b610a255760405162461bcd60e51b81526004016101af90611b7b565b610a3184848484610bd1565b50505050565b6060610a4282610aea565b5f610a4b610f5c565b90505f815111610a695760405180602001604052805f815250610a94565b80610a7384610fa3565b604051602001610a84929190611bdc565b6040516020818303038152906040525b9392505050565b5f6001600160e01b031982166380ac58cd60e01b1480610acb57506001600160e01b03198216635b5e139f60e01b145b8061045b57506301ffc9a760e01b6001600160e01b031983161461045b565b5f818152600260205260409020546001600160a01b0316610b485760405162461bcd60e51b8152602060048201526018602482015277115490cdcc8c4e881a5b9d985b1a59081d1bdad95b88125160421b60448201526064016101af565b50565b5f81815260046020526040902080546001600160a01b0319166001600160a01b0384169081179091558190610b7f82610902565b6001600160a01b03167f8c5be1e5ebec7d5bd14f71427d1e84f3dd0314c0f7b2291e5b200ac8c7c3b92560405160405180910390a45050565b6106ca828260405180602001604052805f815250611033565b610bdc848484610d20565b610be884848484611065565b610a315760405162461bcd60e51b81526004016101af90611c0a565b5f610c0e82610902565b9050610c1d815f846001611162565b610c2682610902565b5f83815260046020908152604080832080546001600160a01b03199081169091556001600160a01b0385168085526003845282852080545f190190558785526002909352818420805490911690555192935084927fddf252ad1be2c89b69c2b068fc378daa952ba7f163c4a11628f55a4df523b3ef908390a45050565b5f80610cae83610902565b9050806001600160a01b0316846001600160a01b03161480610cf457506001600160a01b038082165f9081526005602090815260408083209388168352929052205460ff165b80610d185750836001600160a01b0316610d0d846104f0565b6001600160a01b0316145b949350505050565b826001600160a01b0316610d3382610902565b6001600160a01b031614610d595760405162461bcd60e51b81526004016101af90611c5c565b6001600160a01b038216610dbb5760405162461bcd60e51b8152602060048201526024808201527f4552433732313a207472616e7366657220746f20746865207a65726f206164646044820152637265737360e01b60648201526084016101af565b610dc88383836001611162565b826001600160a01b0316610ddb82610902565b6001600160a01b031614610e015760405162461bcd60e51b81526004016101af90611c5c565b5f81815260046020908152604080832080546001600160a01b03199081169091556001600160a01b038781168086526003855283862080545f1901905590871680865283862080546001019055868652600290945282852080549092168417909155905184937fddf252ad1be2c89b69c2b068fc378daa952ba7f163c4a11628f55a4df523b3ef91a4505050565b816001600160a01b0316836001600160a01b031603610ef05760405162461bcd60e51b815260206004820152601960248201527f4552433732313a20617070726f766520746f2063616c6c65720000000000000060448201526064016101af565b6001600160a01b038381165f81815260056020908152604080832094871680845294825291829020805460ff191686151590811790915591519182527f17307eab39ab6107e8899845ad3d59bd9653f200f220920489ca2b5937696c31910160405180910390a3505050565b6060610f6746610fa3565b600a54610f7e906001600160a01b031660146111d6565b604051602001610f8f929190611ca1565b604051602081830303815290604052905090565b60605f610faf8361136c565b60010190505f8167ffffffffffffffff811115610fce57610fce611a40565b6040519080825280601f01601f191660200182016040528015610ff8576020820181803683370190505b5090508181016020015b5f19016f181899199a1a9b1b9c1cb0b131b232b360811b600a86061a8153600a850494508461100257509392505050565b61103d8383611443565b6110495f848484611065565b6106245760405162461bcd60e51b81526004016101af90611c0a565b5f6001600160a01b0384163b1561115757604051630a85bd0160e11b81526001600160a01b0385169063150b7a02906110a8903390899088908890600401611d18565b6020604051808303815f875af19250505080156110e2575060408051601f3d908101601f191682019092526110df91810190611d54565b60015b61113d573d80801561110f576040519150601f19603f3d011682016040523d82523d5f602084013e611114565b606091505b5080515f036111355760405162461bcd60e51b81526004016101af90611c0a565b805181602001fd5b6001600160e01b031916630a85bd0160e11b149050610d18565b506001949350505050565b61116e848484846115d8565b600a54604051631502dd5760e21b815267ffffffffffffffff841660048201526001600160a01b039091169063540b755c906024015f604051808303815f87803b1580156111ba575f80fd5b505af11580156111cc573d5f803e3d5ffd5b5050505050505050565b60605f6111e4836002611d83565b6111ef906002611d9a565b67ffffffffffffffff81111561120757611207611a40565b6040519080825280601f01601f191660200182016040528015611231576020820181803683370190505b509050600360fc1b815f8151811061124b5761124b611bc8565b60200101906001600160f81b03191690815f1a905350600f60fb1b8160018151811061127957611279611bc8565b60200101906001600160f81b03191690815f1a9053505f61129b846002611d83565b6112a6906001611d9a565b90505b600181111561131d576f181899199a1a9b1b9c1cb0b131b232b360811b85600f16601081106112da576112da611bc8565b1a60f81b8282815181106112f0576112f0611bc8565b60200101906001600160f81b03191690815f1a90535060049490941c9361131681611dad565b90506112a9565b508315610a945760405162461bcd60e51b815260206004820181905260248201527f537472696e67733a20686578206c656e67746820696e73756666696369656e7460448201526064016101af565b5f8072184f03e93ff9f4daa797ed6e38ed64bf6a1f0160401b83106113aa5772184f03e93ff9f4daa797ed6e38ed64bf6a1f0160401b830492506040015b6d04ee2d6d415b85acef810000000083106113d6576d04ee2d6d415b85acef8100000000830492506020015b662386f26fc1000083106113f457662386f26fc10000830492506010015b6305f5e100831061140c576305f5e100830492506008015b612710831061142057612710830492506004015b60648310611432576064830492506002015b600a831061045b5760010192915050565b6001600160a01b0382166114995760405162461bcd60e51b815260206004820181905260248201527f4552433732313a206d696e7420746f20746865207a65726f206164647265737360448201526064016101af565b5f818152600260205260409020546001600160a01b0316156114fd5760405162461bcd60e51b815260206004820152601c60248201527f4552433732313a20746f6b656e20616c7265616479206d696e7465640000000060448201526064016101af565b61150a5f83836001611162565b5f818152600260205260409020546001600160a01b03161561156e5760405162461bcd60e51b815260206004820152601c60248201527f4552433732313a20746f6b656e20616c7265616479206d696e7465640000000060448201526064016101af565b6001600160a01b0382165f81815260036020908152604080832080546001019055848352600290915280822080546001600160a01b0319168417905551839291907fddf252ad1be2c89b69c2b068fc378daa952ba7f163c4a11628f55a4df523b3ef908290a45050565b60018111156116475760405162461bcd60e51b815260206004820152603560248201527f455243373231456e756d657261626c653a20636f6e7365637574697665207472604482015274185b9cd9995c9cc81b9bdd081cdd5c1c1bdc9d1959605a1b60648201526084016101af565b816001600160a01b0385166116a25761169d81600880545f838152600960205260408120829055600182018355919091527ff3f7a9fe364faab93b216da50a3214154f22a0a2b415b23a84c8169e8b636ee30155565b6116c5565b836001600160a01b0316856001600160a01b0316146116c5576116c5858261170b565b6001600160a01b0384166116e1576116dc816117a4565b611704565b846001600160a01b0316846001600160a01b03161461170457611704848261184b565b5050505050565b5f600161171784610961565b6117219190611dc2565b5f83815260076020526040902054909150808214611772576001600160a01b0384165f9081526006602090815260408083208584528252808320548484528184208190558352600790915290208190555b505f9182526007602090815260408084208490556001600160a01b039094168352600681528383209183525290812055565b6008545f906117b590600190611dc2565b5f83815260096020526040812054600880549394509092849081106117dc576117dc611bc8565b905f5260205f200154905080600883815481106117fb576117fb611bc8565b5f91825260208083209091019290925582815260099091526040808220849055858252812055600880548061183257611832611dd5565b600190038181905f5260205f20015f9055905550505050565b5f61185583610961565b6001600160a01b039093165f908152600660209081526040808320868452825280832085905593825260079052919091209190915550565b6001600160e01b031981168114610b48575f80fd5b5f602082840312156118b2575f80fd5b8135610a948161188d565b5f5b838110156118d75781810151838201526020016118bf565b50505f910152565b5f81518084526118f68160208601602086016118bd565b601f01601f19169290920160200192915050565b602081525f610a9460208301846118df565b5f6020828403121561192c575f80fd5b5035919050565b80356001600160a01b0381168114611949575f80fd5b919050565b5f806040838503121561195f575f80fd5b61196883611933565b946020939093013593505050565b5f8060408385031215611987575f80fd5b823567ffffffffffffffff8116811461199e575f80fd5b91506119ac60208401611933565b90509250929050565b5f805f606084860312156119c7575f80fd5b6119d084611933565b92506119de60208501611933565b9150604084013590509250925092565b5f602082840312156119fe575f80fd5b610a9482611933565b5f8060408385031215611a18575f80fd5b611a2183611933565b915060208301358015158114611a35575f80fd5b809150509250929050565b634e487b7160e01b5f52604160045260245ffd5b5f805f8060808587031215611a67575f80fd5b611a7085611933565b9350611a7e60208601611933565b925060408501359150606085013567ffffffffffffffff80821115611aa1575f80fd5b818701915087601f830112611ab4575f80fd5b813581811115611ac657611ac6611a40565b604051601f8201601f19908116603f01168101908382118183101715611aee57611aee611a40565b816040528281528a6020848701011115611b06575f80fd5b826020860160208301375f60208483010152809550505050505092959194509250565b5f8060408385031215611b3a575f80fd5b61199e83611933565b600181811c90821680611b5757607f821691505b602082108103611b7557634e487b7160e01b5f52602260045260245ffd5b50919050565b6020808252602d908201527f4552433732313a2063616c6c6572206973206e6f7420746f6b656e206f776e6560408201526c1c881bdc88185c1c1c9bdd9959609a1b606082015260800190565b634e487b7160e01b5f52603260045260245ffd5b5f8351611bed8184602088016118bd565b835190830190611c018183602088016118bd565b01949350505050565b60208082526032908201527f4552433732313a207472616e7366657220746f206e6f6e20455243373231526560408201527131b2b4bb32b91034b6b83632b6b2b73a32b960711b606082015260800190565b60208082526025908201527f4552433732313a207472616e736665722066726f6d20696e636f72726563742060408201526437bbb732b960d91b606082015260800190565b7f68747470733a2f2f6465762e706b3931302e64652f6574687661756c743f633d81525f8351611cd88160208501602088016118bd565b80830190506226763d60e81b60208201528351611cfc8160238401602088016118bd565b6226703d60e81b60239290910191820152602601949350505050565b6001600160a01b03858116825284166020820152604081018390526080606082018190525f90611d4a908301846118df565b9695505050505050565b5f60208284031215611d64575f80fd5b8151610a948161188d565b634e487b7160e01b5f52601160045260245ffd5b808202811582820484141761045b5761045b611d6f565b8082018082111561045b5761045b611d6f565b5f81611dbb57611dbb611d6f565b505f190190565b8181038181111561045b5761045b611d6f565b634e487b7160e01b5f52603160045260245ffdfea2646970667358221220001537d1d861ada841e238ed2823ce258e40dd3b33b2e888696b8bfe95e2ec9a64736f6c63430008150033",
  "immutableReferences": {},
  "source": "// SPDX-License-Identifier: MIT\r\npragma solidity ^0.8.21;\r\n\r\nimport \"@openzeppelin/contracts/token/ERC721/extensions/ERC721Enumerable.sol\";\r\nimport \"./IFundingVaultToken.sol\";\r\nimport \"./IFundingVault.sol\";\r\n\r\ncontract FundingVaultToken is ERC721Enumerable, IFundingVaultToken {\r\n  address private _fundingVault;\r\n\r\n  constructor(address fundingVault) ERC721(\"FundingVault Grant\", \"FVGrant\") {\r\n    _fundingVault = fundingVault;\r\n  }\r\n\r\n  receive() external payable {\r\n    if(msg.value > 0) {\r\n      (bool sent, ) = payable(_fundingVault).call{value: msg.value}(\"\");\r\n      require(sent, \"failed to forward ether\");\r\n    }\r\n  }\r\n\r\n  function getVault() public view returns (address) {\r\n    return _fundingVault;\r\n  }\r\n\r\n  function _baseURI() internal view override returns (string memory) {\r\n    return string(abi.encodePacked(\"https://dev.pk910.de/ethvault?c=\", Strings.toString(block.chainid), \"&v=\",  Strings.toHexString(uint160(_fundingVault), 20), \"&p=\"));\r\n  }\r\n\r\n  function _beforeTokenTransfer(address from, address to, uint256 tokenId, uint256 batchSize) internal virtual override {\r\n    super._beforeTokenTransfer(from, to, tokenId, batchSize);\r\n\r\n    IFundingVault(_fundingVault).notifyGrantTransfer(uint64(tokenId));\r\n  }\r\n\r\n  function tokenUpdate(uint64 tokenId, address targetAddr) public {\r\n    require(_msgSender() == _fundingVault, \"not vault contract\");\r\n\r\n    if(targetAddr != address(0)) {\r\n      if(!_exists(tokenId)) {\r\n        _safeMint(targetAddr, tokenId);\r\n      }\r\n      else if(_ownerOf(tokenId) != targetAddr) {\r\n        _safeTransfer(_ownerOf(tokenId), targetAddr, tokenId, \"\");\r\n      }\r\n    }\r\n    else if(_exists(tokenId)) {\r\n      _burn(tokenId);\r\n    }\r\n  }\r\n\r\n}\r\n",
  "sourcePath": "D:\\DEV\\_SDEV2\\_crypto-workspace\\funding-vault\\contracts\\FundingVaultToken.sol",
  "compiler": {
    "name": "solc",
    "version": "0.8.21+commit.d9974bed.Emscripten.clang"
  },
  "schemaVersion": "3.4.4",
  "updatedAt": "2023-08-18T23:08:46.176Z",
  "networkType": "ethereum",
  "devdoc": {
    "events": {
      "Approval(address,address,uint256)": {
        "details": "Emitted when `owner` enables `approved` to manage the `tokenId` token."
      },
      "ApprovalForAll(address,address,bool)": {
        "details": "Emitted when `owner` enables or disables (`approved`) `operator` to manage all of its assets."
      },
      "Transfer(address,address,uint256)": {
        "details": "Emitted when `tokenId` token is transferred from `from` to `to`."
      }
    },
    "kind": "dev",
    "methods": {
      "approve(address,uint256)": {
        "details": "See {IERC721-approve}."
      },
      "balanceOf(address)": {
        "details": "See {IERC721-balanceOf}."
      },
      "getApproved(uint256)": {
        "details": "See {IERC721-getApproved}."
      },
      "isApprovedForAll(address,address)": {
        "details": "See {IERC721-isApprovedForAll}."
      },
      "name()": {
        "details": "See {IERC721Metadata-name}."
      },
      "ownerOf(uint256)": {
        "details": "See {IERC721-ownerOf}."
      },
      "safeTransferFrom(address,address,uint256)": {
        "details": "See {IERC721-safeTransferFrom}."
      },
      "safeTransferFrom(address,address,uint256,bytes)": {
        "details": "See {IERC721-safeTransferFrom}."
      },
      "setApprovalForAll(address,bool)": {
        "details": "See {IERC721-setApprovalForAll}."
      },
      "supportsInterface(bytes4)": {
        "details": "See {IERC165-supportsInterface}."
      },
      "symbol()": {
        "details": "See {IERC721Metadata-symbol}."
      },
      "tokenByIndex(uint256)": {
        "details": "See {IERC721Enumerable-tokenByIndex}."
      },
      "tokenOfOwnerByIndex(address,uint256)": {
        "details": "See {IERC721Enumerable-tokenOfOwnerByIndex}."
      },
      "tokenURI(uint256)": {
        "details": "See {IERC721Metadata-tokenURI}."
      },
      "totalSupply()": {
        "details": "See {IERC721Enumerable-totalSupply}."
      },
      "transferFrom(address,address,uint256)": {
        "details": "See {IERC721-transferFrom}."
      }
    },
    "version": 1
  },
  "userdoc": {
    "kind": "user",
    "methods": {},
    "version": 1
  }
}