{
  "contractName": "FundingVaultV1",
  "abi": [
    {
      "anonymous": false,
      "inputs": [
        {
          "indexed": true,
          "internalType": "uint64",
          "name": "grantId",
          "type": "uint64"
        },
        {
          "indexed": true,
          "internalType": "address",
          "name": "to",
          "type": "address"
        },
        {
          "indexed": false,
          "internalType": "uint256",
          "name": "amount",
          "type": "uint256"
        },
        {
          "indexed": false,
          "internalType": "uint64",
          "name": "grantTimeUsed",
          "type": "uint64"
        }
      ],
      "name": "GrantClaim",
      "type": "event"
    },
    {
      "anonymous": false,
      "inputs": [
        {
          "indexed": true,
          "internalType": "uint64",
          "name": "grantId",
          "type": "uint64"
        },
        {
          "indexed": false,
          "internalType": "uint64",
          "name": "lockTime",
          "type": "uint64"
        },
        {
          "indexed": false,
          "internalType": "uint64",
          "name": "lockTimeout",
          "type": "uint64"
        }
      ],
      "name": "GrantLock",
      "type": "event"
    },
    {
      "anonymous": false,
      "inputs": [
        {
          "indexed": true,
          "internalType": "uint64",
          "name": "grantId",
          "type": "uint64"
        },
        {
          "indexed": false,
          "internalType": "uint128",
          "name": "amount",
          "type": "uint128"
        },
        {
          "indexed": false,
          "internalType": "uint64",
          "name": "interval",
          "type": "uint64"
        }
      ],
      "name": "GrantUpdate",
      "type": "event"
    },
    {
      "anonymous": false,
      "inputs": [
        {
          "indexed": false,
          "internalType": "address",
          "name": "account",
          "type": "address"
        }
      ],
      "name": "Paused",
      "type": "event"
    },
    {
      "anonymous": false,
      "inputs": [
        {
          "indexed": true,
          "internalType": "bytes32",
          "name": "role",
          "type": "bytes32"
        },
        {
          "indexed": true,
          "internalType": "bytes32",
          "name": "previousAdminRole",
          "type": "bytes32"
        },
        {
          "indexed": true,
          "internalType": "bytes32",
          "name": "newAdminRole",
          "type": "bytes32"
        }
      ],
      "name": "RoleAdminChanged",
      "type": "event"
    },
    {
      "anonymous": false,
      "inputs": [
        {
          "indexed": true,
          "internalType": "bytes32",
          "name": "role",
          "type": "bytes32"
        },
        {
          "indexed": true,
          "internalType": "address",
          "name": "account",
          "type": "address"
        },
        {
          "indexed": true,
          "internalType": "address",
          "name": "sender",
          "type": "address"
        }
      ],
      "name": "RoleGranted",
      "type": "event"
    },
    {
      "anonymous": false,
      "inputs": [
        {
          "indexed": true,
          "internalType": "bytes32",
          "name": "role",
          "type": "bytes32"
        },
        {
          "indexed": true,
          "internalType": "address",
          "name": "account",
          "type": "address"
        },
        {
          "indexed": true,
          "internalType": "address",
          "name": "sender",
          "type": "address"
        }
      ],
      "name": "RoleRevoked",
      "type": "event"
    },
    {
      "anonymous": false,
      "inputs": [
        {
          "indexed": false,
          "internalType": "address",
          "name": "account",
          "type": "address"
        }
      ],
      "name": "Unpaused",
      "type": "event"
    },
    {
      "inputs": [],
      "name": "DEFAULT_ADMIN_ROLE",
      "outputs": [
        {
          "internalType": "bytes32",
          "name": "",
          "type": "bytes32"
        }
      ],
      "stateMutability": "view",
      "type": "function",
      "constant": true
    },
    {
      "inputs": [],
      "name": "GRANT_MANAGER_ROLE",
      "outputs": [
        {
          "internalType": "bytes32",
          "name": "",
          "type": "bytes32"
        }
      ],
      "stateMutability": "view",
      "type": "function",
      "constant": true
    },
    {
      "inputs": [
        {
          "internalType": "bytes32",
          "name": "role",
          "type": "bytes32"
        }
      ],
      "name": "getRoleAdmin",
      "outputs": [
        {
          "internalType": "bytes32",
          "name": "",
          "type": "bytes32"
        }
      ],
      "stateMutability": "view",
      "type": "function",
      "constant": true
    },
    {
      "inputs": [
        {
          "internalType": "bytes32",
          "name": "role",
          "type": "bytes32"
        },
        {
          "internalType": "address",
          "name": "account",
          "type": "address"
        }
      ],
      "name": "grantRole",
      "outputs": [],
      "stateMutability": "nonpayable",
      "type": "function"
    },
    {
      "inputs": [
        {
          "internalType": "bytes32",
          "name": "role",
          "type": "bytes32"
        },
        {
          "internalType": "address",
          "name": "account",
          "type": "address"
        }
      ],
      "name": "hasRole",
      "outputs": [
        {
          "internalType": "bool",
          "name": "",
          "type": "bool"
        }
      ],
      "stateMutability": "view",
      "type": "function",
      "constant": true
    },
    {
      "inputs": [],
      "name": "paused",
      "outputs": [
        {
          "internalType": "bool",
          "name": "",
          "type": "bool"
        }
      ],
      "stateMutability": "view",
      "type": "function",
      "constant": true
    },
    {
      "inputs": [
        {
          "internalType": "bytes32",
          "name": "role",
          "type": "bytes32"
        },
        {
          "internalType": "address",
          "name": "account",
          "type": "address"
        }
      ],
      "name": "renounceRole",
      "outputs": [],
      "stateMutability": "nonpayable",
      "type": "function"
    },
    {
      "inputs": [
        {
          "internalType": "bytes32",
          "name": "role",
          "type": "bytes32"
        },
        {
          "internalType": "address",
          "name": "account",
          "type": "address"
        }
      ],
      "name": "revokeRole",
      "outputs": [],
      "stateMutability": "nonpayable",
      "type": "function"
    },
    {
      "inputs": [
        {
          "internalType": "bytes4",
          "name": "interfaceId",
          "type": "bytes4"
        }
      ],
      "name": "supportsInterface",
      "outputs": [
        {
          "internalType": "bool",
          "name": "",
          "type": "bool"
        }
      ],
      "stateMutability": "view",
      "type": "function",
      "constant": true
    },
    {
      "stateMutability": "payable",
      "type": "receive",
      "payable": true
    },
    {
      "inputs": [
        {
          "internalType": "address",
          "name": "tokenAddr",
          "type": "address"
        }
      ],
      "name": "initialize",
      "outputs": [],
      "stateMutability": "nonpayable",
      "type": "function"
    },
    {
      "inputs": [
        {
          "internalType": "address",
          "name": "addr",
          "type": "address"
        },
        {
          "internalType": "uint256",
          "name": "amount",
          "type": "uint256"
        },
        {
          "internalType": "bytes",
          "name": "data",
          "type": "bytes"
        }
      ],
      "name": "rescueCall",
      "outputs": [],
      "stateMutability": "nonpayable",
      "type": "function"
    },
    {
      "inputs": [
        {
          "internalType": "bool",
          "name": "paused",
          "type": "bool"
        }
      ],
      "name": "setPaused",
      "outputs": [],
      "stateMutability": "nonpayable",
      "type": "function"
    },
    {
      "inputs": [
        {
          "internalType": "uint32",
          "name": "lockTime",
          "type": "uint32"
        }
      ],
      "name": "setClaimTransferLockTime",
      "outputs": [],
      "stateMutability": "nonpayable",
      "type": "function"
    },
    {
      "inputs": [
        {
          "internalType": "uint128",
          "name": "amount",
          "type": "uint128"
        },
        {
          "internalType": "uint64",
          "name": "interval",
          "type": "uint64"
        },
        {
          "internalType": "uint32",
          "name": "cooldown",
          "type": "uint32"
        },
        {
          "internalType": "uint32",
          "name": "cooldownLock",
          "type": "uint32"
        }
      ],
      "name": "setManagerGrantLimits",
      "outputs": [],
      "stateMutability": "nonpayable",
      "type": "function"
    },
    {
      "inputs": [
        {
          "internalType": "uint64",
          "name": "grantId",
          "type": "uint64"
        },
        {
          "internalType": "uint256",
          "name": "requestAmount",
          "type": "uint256"
        }
      ],
      "name": "_calculateClaim",
      "outputs": [
        {
          "internalType": "uint256",
          "name": "claimAmount",
          "type": "uint256"
        },
        {
          "internalType": "uint64",
          "name": "newClaimTime",
          "type": "uint64"
        },
        {
          "internalType": "uint256",
          "name": "newDustBalance",
          "type": "uint256"
        },
        {
          "internalType": "uint64",
          "name": "usedTime",
          "type": "uint64"
        }
      ],
      "stateMutability": "view",
      "type": "function",
      "constant": true
    },
    {
      "inputs": [],
      "name": "getVaultToken",
      "outputs": [
        {
          "internalType": "address",
          "name": "",
          "type": "address"
        }
      ],
      "stateMutability": "view",
      "type": "function",
      "constant": true
    },
    {
      "inputs": [],
      "name": "getGrants",
      "outputs": [
        {
          "components": [
            {
              "internalType": "uint64",
              "name": "claimTime",
              "type": "uint64"
            },
            {
              "internalType": "uint64",
              "name": "claimInterval",
              "type": "uint64"
            },
            {
              "internalType": "uint128",
              "name": "claimLimit",
              "type": "uint128"
            },
            {
              "internalType": "uint256",
              "name": "dustBalance",
              "type": "uint256"
            }
          ],
          "internalType": "struct Grant[]",
          "name": "",
          "type": "tuple[]"
        }
      ],
      "stateMutability": "view",
      "type": "function",
      "constant": true
    },
    {
      "inputs": [
        {
          "internalType": "uint64",
          "name": "grantId",
          "type": "uint64"
        }
      ],
      "name": "getGrant",
      "outputs": [
        {
          "components": [
            {
              "internalType": "uint64",
              "name": "claimTime",
              "type": "uint64"
            },
            {
              "internalType": "uint64",
              "name": "claimInterval",
              "type": "uint64"
            },
            {
              "internalType": "uint128",
              "name": "claimLimit",
              "type": "uint128"
            },
            {
              "internalType": "uint256",
              "name": "dustBalance",
              "type": "uint256"
            }
          ],
          "internalType": "struct Grant",
          "name": "",
          "type": "tuple"
        }
      ],
      "stateMutability": "view",
      "type": "function",
      "constant": true
    },
    {
      "inputs": [
        {
          "internalType": "uint32",
          "name": "grantId",
          "type": "uint32"
        }
      ],
      "name": "getGrantLockTime",
      "outputs": [
        {
          "internalType": "uint64",
          "name": "",
          "type": "uint64"
        }
      ],
      "stateMutability": "view",
      "type": "function",
      "constant": true
    },
    {
      "inputs": [
        {
          "internalType": "uint64",
          "name": "grantId",
          "type": "uint64"
        }
      ],
      "name": "getClaimableBalance",
      "outputs": [
        {
          "internalType": "uint256",
          "name": "",
          "type": "uint256"
        }
      ],
      "stateMutability": "view",
      "type": "function",
      "constant": true
    },
    {
      "inputs": [],
      "name": "getClaimableBalance",
      "outputs": [
        {
          "internalType": "uint256",
          "name": "",
          "type": "uint256"
        }
      ],
      "stateMutability": "view",
      "type": "function",
      "constant": true
    },
    {
      "inputs": [
        {
          "internalType": "address",
          "name": "manager",
          "type": "address"
        }
      ],
      "name": "getManagerCooldown",
      "outputs": [
        {
          "internalType": "uint64",
          "name": "",
          "type": "uint64"
        }
      ],
      "stateMutability": "view",
      "type": "function",
      "constant": true
    },
    {
      "inputs": [
        {
          "internalType": "address",
          "name": "addr",
          "type": "address"
        },
        {
          "internalType": "uint128",
          "name": "amount",
          "type": "uint128"
        },
        {
          "internalType": "uint64",
          "name": "interval",
          "type": "uint64"
        }
      ],
      "name": "createGrant",
      "outputs": [],
      "stateMutability": "nonpayable",
      "type": "function"
    },
    {
      "inputs": [
        {
          "internalType": "uint64",
          "name": "grantId",
          "type": "uint64"
        },
        {
          "internalType": "uint128",
          "name": "amount",
          "type": "uint128"
        },
        {
          "internalType": "uint64",
          "name": "interval",
          "type": "uint64"
        }
      ],
      "name": "updateGrant",
      "outputs": [],
      "stateMutability": "nonpayable",
      "type": "function"
    },
    {
      "inputs": [
        {
          "internalType": "uint64",
          "name": "grantId",
          "type": "uint64"
        },
        {
          "internalType": "address",
          "name": "addr",
          "type": "address"
        }
      ],
      "name": "transferGrant",
      "outputs": [],
      "stateMutability": "nonpayable",
      "type": "function"
    },
    {
      "inputs": [
        {
          "internalType": "uint64",
          "name": "grantId",
          "type": "uint64"
        }
      ],
      "name": "removeGrant",
      "outputs": [],
      "stateMutability": "nonpayable",
      "type": "function"
    },
    {
      "inputs": [
        {
          "internalType": "uint64",
          "name": "grantId",
          "type": "uint64"
        },
        {
          "internalType": "uint64",
          "name": "lockTime",
          "type": "uint64"
        }
      ],
      "name": "lockGrant",
      "outputs": [],
      "stateMutability": "nonpayable",
      "type": "function"
    },
    {
      "inputs": [
        {
          "internalType": "uint64",
          "name": "grantId",
          "type": "uint64"
        }
      ],
      "name": "notifyGrantTransfer",
      "outputs": [],
      "stateMutability": "nonpayable",
      "type": "function"
    },
    {
      "inputs": [
        {
          "internalType": "uint256",
          "name": "amount",
          "type": "uint256"
        }
      ],
      "name": "claim",
      "outputs": [
        {
          "internalType": "uint256",
          "name": "",
          "type": "uint256"
        }
      ],
      "stateMutability": "nonpayable",
      "type": "function"
    },
    {
      "inputs": [
        {
          "internalType": "uint64",
          "name": "grantId",
          "type": "uint64"
        },
        {
          "internalType": "uint256",
          "name": "amount",
          "type": "uint256"
        }
      ],
      "name": "claim",
      "outputs": [
        {
          "internalType": "uint256",
          "name": "",
          "type": "uint256"
        }
      ],
      "stateMutability": "nonpayable",
      "type": "function"
    },
    {
      "inputs": [
        {
          "internalType": "uint64",
          "name": "grantId",
          "type": "uint64"
        },
        {
          "internalType": "uint256",
          "name": "amount",
          "type": "uint256"
        },
        {
          "internalType": "address",
          "name": "target",
          "type": "address"
        }
      ],
      "name": "claimTo",
      "outputs": [
        {
          "internalType": "uint256",
          "name": "",
          "type": "uint256"
        }
      ],
      "stateMutability": "nonpayable",
      "type": "function"
    },
    {
      "inputs": [
        {
          "internalType": "uint256",
          "name": "amount",
          "type": "uint256"
        },
        {
          "internalType": "address",
          "name": "target",
          "type": "address"
        }
      ],
      "name": "claimTo",
      "outputs": [
        {
          "internalType": "uint256",
          "name": "",
          "type": "uint256"
        }
      ],
      "stateMutability": "nonpayable",
      "type": "function"
    }
  ],
  "bytecode": "0x608060405234801561000f575f80fd5b506003805460ff19169055613358806100275f395ff3fe6080604052600436106101de575f3560e01c80635c975abb116100fd578063a217fddf11610092578063d547741f11610062578063d547741f1461059d578063dc0533ef146105bc578063e0bd3015146105db578063fd264ad6146105ef575f80fd5b8063a217fddf1461052d578063a6a1cb4c14610540578063a92e6f2b1461055f578063c4d66de81461057e575f80fd5b806390270417116100cd57806390270417146104b057806391d14854146104d0578063939a3faf146104ef57806396dfe5de1461050e575f80fd5b80635c975abb146104345780635f2f26971461044b57806376d0c8641461046a5780638a1a14eb14610491575f80fd5b80632f2ff15d11610173578063379607f511610143578063379607f5146103a05780634b2b9ec7146103bf578063503914db146103f6578063540b755c14610415575f80fd5b80632f2ff15d1461032457806330e1198b14610343578063362e7e131461036257806336568abe14610381575f80fd5b80631fca9342116101ae5780631fca93421461027e57806323d2dad7146102ab578063248a9ca3146102ca5780632f274411146102f8575f80fd5b806301ffc9a7146101e957806308cf0ebb1461021d578063158c75e51461023e57806316c38b3c1461025f575f80fd5b366101e557005b5f80fd5b3480156101f4575f80fd5b50610208610203366004612c2d565b610639565b60405190151581526020015b60405180910390f35b348015610228575f80fd5b5061023c610237366004612c93565b61066f565b005b348015610249575f80fd5b506102526106e6565b6040516102149190612d20565b34801561026a575f80fd5b5061023c610279366004612d6d565b6108f8565b348015610289575f80fd5b5061029d610298366004612da0565b61091c565b604051908152602001610214565b3480156102b6575f80fd5b5061023c6102c5366004612ddd565b610a30565b3480156102d5575f80fd5b5061029d6102e4366004612e0e565b5f9081526002602052604090206001015490565b348015610303575f80fd5b50610317610312366004612e25565b610b1e565b6040516102149190612e3e565b34801561032f575f80fd5b5061023c61033e366004612e4c565b610bda565b34801561034e575f80fd5b5061029d61035d366004612e4c565b610c03565b34801561036d575f80fd5b5061023c61037c366004612e25565b610c77565b34801561038c575f80fd5b5061023c61039b366004612e4c565b610d71565b3480156103ab575f80fd5b5061029d6103ba366004612e0e565b610deb565b3480156103ca575f80fd5b506103de6103d9366004612e7a565b610e64565b6040516001600160401b039091168152602001610214565b348015610401575f80fd5b5061029d610410366004612e93565b610ef6565b348015610420575f80fd5b5061023c61042f366004612e25565b610fca565b34801561043f575f80fd5b5060035460ff16610208565b348015610456575f80fd5b506103de610465366004612ebb565b611040565b348015610475575f80fd5b506005546040516001600160a01b039091168152602001610214565b34801561049c575f80fd5b5061023c6104ab366004612ed6565b61109d565b3480156104bb575f80fd5b5061029d5f8051602061330383398151915281565b3480156104db575f80fd5b506102086104ea366004612e4c565b6114b5565b3480156104fa575f80fd5b5061029d610509366004612e25565b6114df565b348015610519575f80fd5b5061023c610528366004612f16565b611520565b348015610538575f80fd5b5061029d5f81565b34801561054b575f80fd5b5061023c61055a366004612e7a565b61161e565b34801561056a575f80fd5b5061023c610579366004612f97565b61164e565b348015610589575f80fd5b5061023c610598366004612ebb565b611b03565b3480156105a8575f80fd5b5061023c6105b7366004612e4c565b611c47565b3480156105c7575f80fd5b5061023c6105d6366004612fb4565b611c6b565b3480156105e6575f80fd5b5061029d611f00565b3480156105fa575f80fd5b5061060e610609366004612e93565b612056565b604080519485526001600160401b039384166020860152840191909152166060820152608001610214565b5f6001600160e01b03198216637965db0b60e01b148061066957506301ffc9a760e01b6001600160e01b03198316145b92915050565b5f61067981612396565b50600680546001600160801b03959095166001600160c01b031990951694909417600160801b6001600160401b039490941693909302929092176001600160c01b0316600160c01b63ffffffff928316026001600160e01b031617600160e01b9290911691909102179055565b600554604080516318160ddd60e01b815290516060926001600160a01b0316915f9183916318160ddd9160048083019260209291908290030181865afa158015610732573d5f803e3d5ffd5b505050506040513d601f19601f820116820180604052508101906107569190612fde565b90505f816001600160401b03166001600160401b0381111561077a5761077a612ff5565b6040519080825280602002602001820160405280156107ca57816020015b604080516080810182525f8082526020808301829052928201819052606082015282525f199092019101816107985790505b5090505f5b826001600160401b0316816001600160401b031610156108f057604051634f6ccce760e01b81526001600160401b03821660048201525f906001600160a01b03861690634f6ccce790602401602060405180830381865afa158015610836573d5f803e3d5ffd5b505050506040513d601f19601f8201168201806040525081019061085a9190612fde565b6001600160401b038181165f90815260076020908152604091829020825160808101845281548086168252600160401b8104861693820193909352600160801b9092046001600160801b0316928201929092526001909101546060820152855192935091859185169081106108d1576108d1613009565b60200260200101819052505080806108e890613031565b9150506107cf565b509392505050565b5f61090281612396565b8115610914576109106123a0565b5050565b6109106123fa565b5f610925612433565b61092d61247b565b6001600160401b038085165f908152600760205260409020541661096c5760405162461bcd60e51b815260040161096390613056565b60405180910390fd5b33610976856124d4565b6001600160a01b0316146109c65760405162461bcd60e51b81526020600482015260176024820152761b9bdd081bdddb995c881bd9881d1a1a5cc819dc985b9d604a1b6044820152606401610963565b5f6109d2858585612547565b905083156109fe578381146109f95760405162461bcd60e51b81526004016109639061307f565b610a1d565b5f8111610a1d5760405162461bcd60e51b81526004016109639061307f565b9050610a296001600455565b9392505050565b610a3861247b565b6001600160401b038083165f9081526007602052604090205416610a6e5760405162461bcd60e51b815260040161096390613056565b610a77826124d4565b6001600160a01b0316336001600160a01b03161480610aa85750610aa85f80516020613303833981519152336114b5565b610af45760405162461bcd60e51b815260206004820152601a60248201527f6e6f74206772616e74206f776e6572206f72206d616e616765720000000000006044820152606401610963565b610afe5f336114b5565b610b0a57610b0a612433565b610b148282612698565b6109106001600455565b604080516080810182525f8082526020820181905291810182905260608101919091526001600160401b038083165f9081526007602052604090205416610b775760405162461bcd60e51b815260040161096390613056565b506001600160401b039081165f90815260076020908152604091829020825160808101845281548086168252600160401b810490951692810192909252600160801b9093046001600160801b031691810191909152600190910154606082015290565b5f82815260026020526040902060010154610bf481612396565b610bfe8383612779565b505050565b5f610c0c612433565b610c1461247b565b5f610c203385856127fe565b90508315610c4c57838114610c475760405162461bcd60e51b81526004016109639061307f565b610c6b565b5f8111610c6b5760405162461bcd60e51b81526004016109639061307f565b90506106696001600455565b5f80516020613303833981519152610c8e81612396565b610c9661247b565b6001600160401b038083165f9081526007602052604090205416610ccc5760405162461bcd60e51b815260040161096390613056565b610cd65f336114b5565b610ce257610ce2612433565b600554604051630712111960e11b81526001600160401b03841660048201525f60248201526001600160a01b0390911690630e242232906044015f604051808303815f87803b158015610d33575f80fd5b505af1158015610d45573d5f803e3d5ffd5b5050506001600160401b0383165f90815260076020526040812081815560010155506109106001600455565b6001600160a01b0381163314610de15760405162461bcd60e51b815260206004820152602f60248201527f416363657373436f6e74726f6c3a2063616e206f6e6c792072656e6f756e636560448201526e103937b632b9903337b91039b2b63360891b6064820152608401610963565b6109108282612967565b5f610df4612433565b610dfc61247b565b5f610e083384336127fe565b90508215610e3457828114610e2f5760405162461bcd60e51b81526004016109639061307f565b610e53565b5f8111610e535760405162461bcd60e51b81526004016109639061307f565b9050610e5f6001600455565b919050565b63ffffffff81165f908152600760205260408120546001600160401b0316610e9e5760405162461bcd60e51b815260040161096390613056565b63ffffffff82165f908152600860205260409020546001600160401b0342811691161115610eef5763ffffffff82165f908152600860205260409020546106699042906001600160401b03166130a5565b505f919050565b5f610eff612433565b610f0761247b565b6001600160401b038084165f9081526007602052604090205416610f3d5760405162461bcd60e51b815260040161096390613056565b33610f47846124d4565b6001600160a01b031614610f975760405162461bcd60e51b81526020600482015260176024820152761b9bdd081bdddb995c881bd9881d1a1a5cc819dc985b9d604a1b6044820152606401610963565b5f610fa3848433612547565b90508215610c4c57828114610c475760405162461bcd60e51b81526004016109639061307f565b6005546001600160a01b0316336001600160a01b0316146110225760405162461bcd60e51b81526020600482015260126024820152711b9bdd081d1bdad95b8818dbdb9d1c9858dd60721b6044820152606401610963565b60055461103d908290600160e01b900463ffffffff16612698565b50565b6001600160a01b0381165f908152600960205260408120546001600160401b0342811691161161107157505f919050565b426001600160a01b0383165f9081526009602052604090205461066991906001600160401b03166130a5565b5f805160206133038339815191526110b481612396565b6110bc61247b565b6001600160401b038085165f90815260076020526040902054166110f25760405162461bcd60e51b815260040161096390613056565b5f836001600160801b031611801561111257505f826001600160401b0316115b61112e5760405162461bcd60e51b8152600401610963906130cc565b6001600160401b038481165f908152600760205260408120549091600160401b8204169061117490600160801b90046001600160801b0316670de0b6b3a76400006130f3565b61117e919061310a565b90505f6001600160401b0384166111a66001600160801b038716670de0b6b3a76400006130f3565b6111b0919061310a565b6006549091505f906001600160401b03600160801b820416906111e4906001600160801b0316670de0b6b3a76400006130f3565b6111ee919061310a565b90508282116111fd5f336114b5565b61134857611209612433565b6006546001600160401b03600160801b9091048116908716111561126f5760405162461bcd60e51b815260206004820152601f60248201527f696e74657276616c2065786365656473206d616e61676572206c696d697473006044820152606401610963565b6006546001600160801b0390811690881611156112ce5760405162461bcd60e51b815260206004820152601d60248201527f616d6f756e742065786365656473206d616e61676572206c696d6974730000006044820152606401610963565b818311156112ee5760405162461bcd60e51b815260040161096390613129565b801561134857600654600160e01b900463ffffffff164261130f9190613160565b335f908152600960205260409020546001600160401b039182169116106113485760405162461bcd60e51b815260040161096390613180565b801561141f57335f908152600960205260409020546001600160401b034281169116101561139957335f908152600960205260409020805467ffffffffffffffff1916426001600160401b03161790555b816113a485856131aa565b6006546113be9190600160c01b900463ffffffff166130f3565b6113c8919061310a565b6113d3906001613160565b335f90815260096020526040812080549091906113fa9084906001600160401b0316613160565b92506101000a8154816001600160401b0302191690836001600160401b031602179055505b6001600160401b038881165f8181526007602090815260409182902080548516600160401b958c169586026001600160801b0390811691909117600160801b918e169182021790915582519081529081019390935290917f3376546f4371ebddddc9b82197e907e12636954e240f592c9fe99fb6dfcf9e7a910160405180910390a2505050506114af6001600455565b50505050565b5f9182526002602090815260408084206001600160a01b0393909316845291905290205460ff1690565b6001600160401b038082165f908152600760205260408120549091166115175760405162461bcd60e51b815260040161096390613056565b610669826129cd565b5f61152a81612396565b478481101561157b5760405162461bcd60e51b815260206004820152601d60248201527f616d6f756e7420657863656564732077616c6c65742062616c616e63650000006044820152606401610963565b5f866001600160a01b03168686866040516115979291906131bd565b5f6040518083038185875af1925050503d805f81146115d1576040519150601f19603f3d011682016040523d82523d5f602084013e6115d6565b606091505b50509050806116155760405162461bcd60e51b815260206004820152600b60248201526a18d85b1b0819985a5b195960aa1b6044820152606401610963565b50505050505050565b5f61162881612396565b506005805463ffffffff909216600160e01b026001600160e01b03909216919091179055565b5f8051602061330383398151915261166581612396565b61166d61247b565b5f836001600160801b031611801561168d57505f826001600160401b0316115b6116a95760405162461bcd60e51b8152600401610963906130cc565b5f6001600160401b0383166116cf6001600160801b038616670de0b6b3a76400006130f3565b6116d9919061310a565b6006549091505f906001600160401b03600160801b8204169061170d906001600160801b0316670de0b6b3a76400006130f3565b611717919061310a565b90506117235f336114b5565b6118685761172f612433565b6006546001600160401b03600160801b909104811690851611156117955760405162461bcd60e51b815260206004820152601f60248201527f696e74657276616c2065786365656473206d616e61676572206c696d697473006044820152606401610963565b6006546001600160801b0390811690861611156117f45760405162461bcd60e51b815260206004820152601d60248201527f616d6f756e742065786365656473206d616e61676572206c696d6974730000006044820152606401610963565b808211156118145760405162461bcd60e51b815260040161096390613129565b600654600160e01b900463ffffffff164261182f9190613160565b335f908152600960205260409020546001600160401b039182169116106118685760405162461bcd60e51b815260040161096390613180565b335f908152600960205260409020546001600160401b03428116911610156118b357335f908152600960205260409020805467ffffffffffffffff1916426001600160401b03161790555b60065481906118d0908490600160c01b900463ffffffff166130f3565b6118da919061310a565b6118e5906001613160565b335f908152600960205260408120805490919061190c9084906001600160401b0316613160565b92506101000a8154816001600160401b0302191690836001600160401b031602179055505f6005601481819054906101000a90046001600160401b03168092919061195690613031565b91906101000a8154816001600160401b0302191690836001600160401b03160217905550905060405180608001604052808661198f4290565b61199991906130a5565b6001600160401b0390811682528781166020808401919091526001600160801b03808b166040808601919091525f60609586018190528785168152600784528190208651815494880151888401518516600160801b02908716600160401b026fffffffffffffffffffffffffffffffff1990961691909616179390931790911692909217815592909101516001909201919091556005549051630712111960e11b81526001600160a01b0390911690630e24223290611a7b9084908b906004016001600160401b039290921682526001600160a01b0316602082015260400190565b5f604051808303815f87803b158015611a92575f80fd5b505af1158015611aa4573d5f803e3d5ffd5b5050604080516001600160801b038a1681526001600160401b038981166020830152851693507f3376546f4371ebddddc9b82197e907e12636954e240f592c9fe99fb6dfcf9e7a92500160405180910390a25050506114af6001600455565b600454158015611b235750600554600160a01b90046001600160401b0316155b611b655760405162461bcd60e51b8152602060048201526013602482015272185b1c9958591e481a5b9a5d1a585b1a5e9959606a1b6044820152606401610963565b5f546001600160a01b03163314611bae5760405162461bcd60e51b815260206004820152600d60248201526c1858d8d95cdcc819195b9a5959609a1b6044820152606401610963565b5f8054611bc491906001600160a01b0316612779565b5f54611be7905f80516020613303833981519152906001600160a01b0316612779565b600160045560058054600160a01b6001600160a01b03939093166001600160e01b031990911617919091176001600160e01b0316604b60e31b1790557da8c0000151800000000000278d00000000000000000000000000000186a0600655565b5f82815260026020526040902060010154611c6181612396565b610bfe8383612967565b5f80516020613303833981519152611c8281612396565b611c8a61247b565b6001600160401b038084165f9081526007602052604090205416611cc05760405162461bcd60e51b815260040161096390613056565b6001600160401b038381165f908152600760205260408120549091600160401b82041690611d0690600160801b90046001600160801b0316670de0b6b3a76400006130f3565b611d10919061310a565b6006549091505f906001600160401b03600160801b82041690611d44906001600160801b0316670de0b6b3a76400006130f3565b611d4e919061310a565b9050611d5a5f336114b5565b611dda57611d66612433565b80821115611d865760405162461bcd60e51b815260040161096390613129565b600654600160e01b900463ffffffff1642611da19190613160565b335f908152600960205260409020546001600160401b03918216911610611dda5760405162461bcd60e51b815260040161096390613180565b335f908152600960205260409020546001600160401b0342811691161015611e2557335f908152600960205260409020805467ffffffffffffffff1916426001600160401b03161790555b6006548190611e42908490600160c01b900463ffffffff166130f3565b611e4c919061310a565b335f9081526009602052604081208054909190611e739084906001600160401b0316613160565b82546101009290920a6001600160401b03818102199093169183160217909155600554604051630712111960e11b815291881660048301526001600160a01b038781166024840152169150630e242232906044015f604051808303815f87803b158015611ede575f80fd5b505af1158015611ef0573d5f803e3d5ffd5b505050505050610bfe6001600455565b6005545f9081906001600160a01b031681816370a08231336040516001600160e01b031960e084901b1681526001600160a01b039091166004820152602401602060405180830381865afa158015611f5a573d5f803e3d5ffd5b505050506040513d601f19601f82011682018060405250810190611f7e9190612fde565b90505f5b816001600160401b0316816001600160401b0316101561204d575f6001600160a01b038416632f745c59336040516001600160e01b031960e084901b1681526001600160a01b0390911660048201526001600160401b0385166024820152604401602060405180830381865afa158015611ffe573d5f803e3d5ffd5b505050506040513d601f19601f820116820180604052508101906120229190612fde565b905061202d816129cd565b61203790866131cc565b945050808061204590613031565b915050611f82565b50919392505050565b6001600160401b038281165f908152600760209081526040808320815160808101835281548087168252600160401b8104909616938101849052600160801b9095046001600160801b0316918501919091526001015460608401529091829182918291158015906120d357505f81604001516001600160801b0316115b80156120e8575080516001600160401b031615155b6121045760405162461bcd60e51b8152600401610963906130cc565b5f8160400151670de0b6b3a764000061211d91906131df565b6001600160801b0316905080871115612134578096505b6001600160401b038881165f9081526008602052604090205442918083169116111561217157825160608401515f9850909650945086935061238a565b82515f61217e82846130a5565b90505f8560600151905085602001516001600160401b0316826001600160401b031611156121bd57602086015191506121b782856130a5565b92505f90505b8a158015906121cc5750808b11155b156121ed578298505f96508a99508a816121e691906131aa565b9750612386565b8086602001516001600160401b0316836001600160401b03168761221191906130f3565b61221b919061310a565b61222591906131cc565b99508a158015906122355750898b105b1561237c575f612245828d6131aa565b90508587602001516001600160401b03168261226191906130f3565b61226b919061310a565b97508087602001516001600160401b0316878a6001600160401b031661229191906130f3565b61229b919061310a565b10156122ed57876122ab81613031565b9850508087602001516001600160401b0316878a6001600160401b03166122d291906130f3565b6122dc919061310a565b6122e691906131aa565b98506122f1565b5f98505b826001600160401b0316886001600160401b031611156123675760405162461bcd60e51b815260206004820152602b60248201527f63616c63756c6174696f6e206572726f723a207573656454696d65203e20617660448201526a61696c61626c6554696d6560a81b6064820152608401610963565b6123718885613160565b99508b9a5050612386565b8196508398505f97505b5050505b50505092959194509250565b61103d81336129e4565b6123a8612433565b6003805460ff191660011790557f62e78cea01bee320cd4e420270b5ea74000d11b0c9f74754ebdbfc544b05a2586123dd3390565b6040516001600160a01b03909116815260200160405180910390a1565b612402612a3d565b6003805460ff191690557f5db9ee0a495bf2e6ff9c91a7834c1ba4fdd244a5e8aa4e537bd38aeae4b073aa336123dd565b60035460ff16156124795760405162461bcd60e51b815260206004820152601060248201526f14185d5cd8589b194e881c185d5cd95960821b6044820152606401610963565b565b6002600454036124cd5760405162461bcd60e51b815260206004820152601f60248201527f5265656e7472616e637947756172643a207265656e7472616e742063616c6c006044820152606401610963565b6002600455565b6005546040516331a9108f60e11b81526001600160401b03831660048201525f916001600160a01b031690636352211e90602401602060405180830381865afa158015612523573d5f803e3d5ffd5b505050506040513d601f19601f82011682018060405250810190610669919061320a565b5f805f805f6125568888612056565b9350935093509350835f03612571575f945050505050610a29565b6001600160401b038881165f90815260076020526040808220805467ffffffffffffffff1916938716939093178355600190920184905590516001600160a01b0388169086908381818185875af1925050503d805f81146125ed576040519150601f19603f3d011682016040523d82523d5f602084013e6125f2565b606091505b505090508061263a5760405162461bcd60e51b81526020600482015260146024820152733330b4b632b2103a379039b2b7321032ba3432b960611b6044820152606401610963565b604080518681526001600160401b0384811660208301526001600160a01b038a1692908c16917f9bc6681351310ea1f31aebc395b080cba707096cdb76f0a969c1c2e1a4c9339a910160405180910390a35092979650505050505050565b5f6126a38242613160565b6001600160401b038085165f9081526008602052604090205491925090811690821611806126d657506126d65f336114b5565b1561270e576001600160401b038381165f908152600860205260409020805467ffffffffffffffff191691831691909117905561272d565b50506001600160401b038082165f908152600860205260408120549091165b604080516001600160401b03848116825283811660208301528516917f86eb882c8f52dab9f2ab23b63cd1c3d92e01df6aac65bd2e7c22a58c7cf6efb7910160405180910390a2505050565b61278382826114b5565b610910575f8281526002602090815260408083206001600160a01b03851684529091529020805460ff191660011790556127ba3390565b6001600160a01b0316816001600160a01b0316837f2f8788117e7eff1d82e926ec794901d17c78024a50270940304540a733656f0d60405160405180910390a45050565b6005546040516370a0823160e01b81526001600160a01b0385811660048301525f928392911690829082906370a0823190602401602060405180830381865afa15801561284d573d5f803e3d5ffd5b505050506040513d601f19601f820116820180604052508101906128719190612fde565b90505f5b816001600160401b0316816001600160401b0316101561295b57604051632f745c5960e01b81526001600160a01b0389811660048301526001600160401b03831660248301525f9190851690632f745c5990604401602060405180830381865afa1580156128e5573d5f803e3d5ffd5b505050506040513d601f19601f820116820180604052508101906129099190612fde565b90505f612917828a8a612547565b905061292381876131cc565b955088156129465780890361293957505061295b565b612943818a6131aa565b98505b5050808061295390613031565b915050612875565b50919695505050505050565b61297182826114b5565b15610910575f8281526002602090815260408083206001600160a01b0385168085529252808320805460ff1916905551339285917ff6391f5c32d9c69d2a47ea670b442974b53935d1edc7fd64eb21e047a839171b9190a45050565b5f806129d9835f612056565b509195945050505050565b6129ee82826114b5565b610910576129fb81612a86565b612a06836020612a98565b604051602001612a17929190613247565b60408051601f198184030181529082905262461bcd60e51b8252610963916004016132bb565b60035460ff166124795760405162461bcd60e51b815260206004820152601460248201527314185d5cd8589b194e881b9bdd081c185d5cd95960621b6044820152606401610963565b60606106696001600160a01b03831660145b60605f612aa68360026130f3565b612ab19060026131cc565b6001600160401b03811115612ac857612ac8612ff5565b6040519080825280601f01601f191660200182016040528015612af2576020820181803683370190505b509050600360fc1b815f81518110612b0c57612b0c613009565b60200101906001600160f81b03191690815f1a905350600f60fb1b81600181518110612b3a57612b3a613009565b60200101906001600160f81b03191690815f1a9053505f612b5c8460026130f3565b612b679060016131cc565b90505b6001811115612bde576f181899199a1a9b1b9c1cb0b131b232b360811b85600f1660108110612b9b57612b9b613009565b1a60f81b828281518110612bb157612bb1613009565b60200101906001600160f81b03191690815f1a90535060049490941c93612bd7816132ed565b9050612b6a565b508315610a295760405162461bcd60e51b815260206004820181905260248201527f537472696e67733a20686578206c656e67746820696e73756666696369656e746044820152606401610963565b5f60208284031215612c3d575f80fd5b81356001600160e01b031981168114610a29575f80fd5b80356001600160801b0381168114610e5f575f80fd5b80356001600160401b0381168114610e5f575f80fd5b803563ffffffff81168114610e5f575f80fd5b5f805f8060808587031215612ca6575f80fd5b612caf85612c54565b9350612cbd60208601612c6a565b9250612ccb60408601612c80565b9150612cd960608601612c80565b905092959194509250565b6001600160401b03808251168352806020830151166020840152506001600160801b036040820151166040830152606081015160608301525050565b602080825282518282018190525f9190848201906040850190845b81811015612d6157612d4e838551612ce4565b9284019260809290920191600101612d3b565b50909695505050505050565b5f60208284031215612d7d575f80fd5b81358015158114610a29575f80fd5b6001600160a01b038116811461103d575f80fd5b5f805f60608486031215612db2575f80fd5b612dbb84612c6a565b9250602084013591506040840135612dd281612d8c565b809150509250925092565b5f8060408385031215612dee575f80fd5b612df783612c6a565b9150612e0560208401612c6a565b90509250929050565b5f60208284031215612e1e575f80fd5b5035919050565b5f60208284031215612e35575f80fd5b610a2982612c6a565b608081016106698284612ce4565b5f8060408385031215612e5d575f80fd5b823591506020830135612e6f81612d8c565b809150509250929050565b5f60208284031215612e8a575f80fd5b610a2982612c80565b5f8060408385031215612ea4575f80fd5b612ead83612c6a565b946020939093013593505050565b5f60208284031215612ecb575f80fd5b8135610a2981612d8c565b5f805f60608486031215612ee8575f80fd5b612ef184612c6a565b9250612eff60208501612c54565b9150612f0d60408501612c6a565b90509250925092565b5f805f8060608587031215612f29575f80fd5b8435612f3481612d8c565b93506020850135925060408501356001600160401b0380821115612f56575f80fd5b818701915087601f830112612f69575f80fd5b813581811115612f77575f80fd5b886020828501011115612f88575f80fd5b95989497505060200194505050565b5f805f60608486031215612fa9575f80fd5b8335612ef181612d8c565b5f8060408385031215612fc5575f80fd5b612fce83612c6a565b91506020830135612e6f81612d8c565b5f60208284031215612fee575f80fd5b5051919050565b634e487b7160e01b5f52604160045260245ffd5b634e487b7160e01b5f52603260045260245ffd5b634e487b7160e01b5f52601160045260245ffd5b5f6001600160401b0380831681810361304c5761304c61301d565b6001019392505050565b6020808252600f908201526e19dc985b9d081b9bdd08199bdd5b99608a1b604082015260600190565b6020808252600c908201526b18db185a5b4819985a5b195960a21b604082015260600190565b6001600160401b038281168282160390808211156130c5576130c561301d565b5092915050565b6020808252600d908201526c1a5b9d985b1a590819dc985b9d609a1b604082015260600190565b80820281158282048414176106695761066961301d565b5f8261312457634e487b7160e01b5f52601260045260245ffd5b500490565b6020808252601c908201527f71756f74612065786365656473206d616e61676572206c696d69747300000000604082015260600190565b6001600160401b038181168382160190808211156130c5576130c561301d565b60208082526010908201526f36b0b730b3b2b91031b7b7b63237bbb760811b604082015260600190565b818103818111156106695761066961301d565b818382375f9101908152919050565b808201808211156106695761066961301d565b6001600160801b038181168382160280821691908281146132025761320261301d565b505092915050565b5f6020828403121561321a575f80fd5b8151610a2981612d8c565b5f5b8381101561323f578181015183820152602001613227565b50505f910152565b7f416363657373436f6e74726f6c3a206163636f756e742000000000000000000081525f835161327e816017850160208801613225565b7001034b99036b4b9b9b4b733903937b6329607d1b60179184019182015283516132af816028840160208801613225565b01602801949350505050565b602081525f82518060208401526132d9816040850160208701613225565b601f01601f19169190910160400192915050565b5f816132fb576132fb61301d565b505f19019056fec7386e23c63a3088d7d0389761b7b890e58c103e1a12376eb26d3a4a04e2641ba2646970667358221220852099a8996e0afd08ede79bfeeddf2d40868ee904ae48964f0715caff06656c64736f6c63430008150033",
  "immutableReferences": {},
  "source": "// SPDX-License-Identifier: MIT\r\npragma solidity ^0.8.21;\r\n\r\nimport \"@openzeppelin/contracts/access/AccessControl.sol\";\r\nimport \"@openzeppelin/contracts/security/Pausable.sol\";\r\nimport \"./ReentrancyGuard.sol\";\r\nimport \"./FundingVaultProxyStorage.sol\";\r\nimport \"./IFundingVaultToken.sol\";\r\nimport \"./IFundingVault.sol\";\r\n\r\nstruct Grant {\r\n  uint64 claimTime;\r\n  uint64 claimInterval;\r\n  uint128 claimLimit;\r\n  uint256 dustBalance;\r\n}\r\n\r\ncontract FundingVaultStorage {\r\n  // slot 0x05\r\n  address internal _vaultTokenAddr;\r\n  uint64 internal _grantIdCounter;\r\n  uint32 internal _claimTransferLockTime;\r\n\r\n  // slot 0x06\r\n  uint128 internal _managerLimitAmount;\r\n  uint64 internal _managerLimitInterval;\r\n  uint32 internal _managerGrantCooldown;\r\n  uint32 internal _managerGrantCooldownLock;\r\n\r\n  // slot 0x07\r\n  mapping(uint64 => Grant) internal _grants;\r\n\r\n  // slot 0x08\r\n  mapping(uint64 => uint64) internal _grantClaimLock;\r\n\r\n  // slot 0x09\r\n  mapping(address => uint64) internal _managerCooldown;\r\n}\r\n\r\ncontract FundingVaultV1 is \r\n  FundingVaultProxyStorage, // 0x00 - 0x01\r\n  AccessControl,            // 0x02\r\n  Pausable,                 // 0x03\r\n  ReentrancyGuard,          // 0x04\r\n  FundingVaultStorage,      // 0x05 - 0x09\r\n  IFundingVault\r\n{\r\n  bytes32 public constant GRANT_MANAGER_ROLE = keccak256(\"GRANT_MANAGER_ROLE\");\r\n\r\n  event GrantLock(uint64 indexed grantId, uint64 lockTime, uint64 lockTimeout);\r\n  event GrantUpdate(uint64 indexed grantId, uint128 amount, uint64 interval);\r\n  event GrantClaim(uint64 indexed grantId, address indexed to, uint256 amount, uint64 grantTimeUsed);\r\n\r\n  receive() external payable {\r\n  }\r\n\r\n  function initialize(address tokenAddr) public {\r\n    require(_reentrancyStatus == 0 && _grantIdCounter == 0, \"already initialized\");\r\n    require(_manager == _msgSender(), \"access denied\");\r\n    _grantRole(DEFAULT_ADMIN_ROLE, _manager);\r\n    _grantRole(GRANT_MANAGER_ROLE, _manager);\r\n    _reentrancyStatus = 1;\r\n    _vaultTokenAddr = tokenAddr;\r\n    _grantIdCounter = 1;\r\n    _claimTransferLockTime = 600;\r\n    _managerLimitAmount = 100000;\r\n    _managerLimitInterval = 2592000;\r\n    _managerGrantCooldown = 86400;\r\n    _managerGrantCooldownLock = 43200;\r\n  }\r\n\r\n\r\n  //## Admin configuration / rescue functions\r\n\r\n  function rescueCall(address addr, uint256 amount, bytes calldata data) public onlyRole(DEFAULT_ADMIN_ROLE) {\r\n    uint balance = address(this).balance;\r\n    require(balance >= amount, \"amount exceeds wallet balance\");\r\n\r\n    (bool sent, ) = payable(addr).call{value: amount}(data);\r\n    require(sent, \"call failed\");\r\n  }\r\n\r\n  function setPaused(bool paused) public onlyRole(DEFAULT_ADMIN_ROLE) {\r\n    if(paused) {\r\n      _pause();\r\n    } else {\r\n      _unpause();\r\n    }\r\n  }\r\n\r\n  function setClaimTransferLockTime(uint32 lockTime) public onlyRole(DEFAULT_ADMIN_ROLE) {\r\n    _claimTransferLockTime = lockTime;\r\n  }\r\n\r\n  function setManagerGrantLimits(uint128 amount, uint64 interval, uint32 cooldown, uint32 cooldownLock) public onlyRole(DEFAULT_ADMIN_ROLE) {\r\n    _managerLimitAmount = amount;\r\n    _managerLimitInterval = interval;\r\n    _managerGrantCooldown = cooldown;\r\n    _managerGrantCooldownLock = cooldownLock;\r\n  }\r\n\r\n  \r\n  //## Internal helper functions\r\n\r\n  function _ownerOf(uint64 tokenId) internal view returns (address) {\r\n    return IFundingVaultToken(_vaultTokenAddr).ownerOf(tokenId);\r\n  }\r\n\r\n  function _getTime() internal view returns (uint64) {\r\n    return uint64(block.timestamp);\r\n  }\r\n\r\n  /*\r\n  The _calculateClaim function is the central piece of code that does the calculations for claiming funds via a grant.\r\n    Arguments: \r\n      grantId - the grant id the sender likes to claim from\r\n      requestAmount - the desired amount of funds the sender likes to claim (0 to claim all available)\r\n    Return Values:\r\n      claimAmount - the amount of funds for payout, smaller or equal to requestedAmount, max available if requestAmount is 0\r\n      newClaimTime - the new claimTime, must be set to the grant struct if claimAmount is payed out\r\n      newDustBalance - the new dustBalance, must be set to the grant struct if claimAmount is payed out\r\n      usedTime - the used claim time to fulfil the request (more informative and for debugging)\r\n  */\r\n  function _calculateClaim(uint64 grantId, uint256 requestAmount) public view \r\n    returns (uint256 claimAmount, uint64 newClaimTime, uint256 newDustBalance, uint64 usedTime) {\r\n    Grant memory grant = _grants[grantId];\r\n    require(grant.claimInterval > 0 && grant.claimLimit > 0 && grant.claimTime > 0, \"invalid grant\");\r\n    \r\n    uint256 claimLimit = grant.claimLimit * 1 ether;\r\n    if(requestAmount > claimLimit) {\r\n      requestAmount = claimLimit;\r\n    }\r\n\r\n    uint64 time = _getTime();\r\n    if(_grantClaimLock[grantId] > time) {\r\n      // grant locked\r\n      newClaimTime = grant.claimTime;\r\n      usedTime = 0;\r\n      claimAmount = 0;\r\n      newDustBalance = grant.dustBalance;\r\n    }\r\n    else {\r\n      uint64 baseClaimTime = grant.claimTime;\r\n      uint64 availableTime = time - baseClaimTime;\r\n      uint256 dustBalance = grant.dustBalance;\r\n      if(availableTime > grant.claimInterval) {\r\n        // available time exceeds interval\r\n        // the sender claimed less than granted, the unclaimed amount is no longer available \r\n        availableTime = grant.claimInterval;\r\n        baseClaimTime = time - grant.claimInterval;\r\n        dustBalance = 0;\r\n      }\r\n\r\n      if(requestAmount != 0 && requestAmount <= dustBalance) {\r\n        // take from dust balance\r\n        newClaimTime = baseClaimTime;\r\n        usedTime = 0;\r\n        claimAmount = requestAmount;\r\n        newDustBalance = dustBalance - requestAmount;\r\n      }\r\n      else {\r\n        // get max claimable amount\r\n        claimAmount = (claimLimit * availableTime / grant.claimInterval) + dustBalance;\r\n\r\n        if(requestAmount != 0 && requestAmount < claimAmount) {\r\n          // sender requested less than available, \"partial\" claim\r\n          uint256 requestClaimAmount = requestAmount - dustBalance;\r\n          usedTime = uint64(requestClaimAmount * grant.claimInterval / claimLimit);\r\n          if(usedTime * claimLimit / grant.claimInterval < requestClaimAmount) {\r\n            usedTime++; // round up if there is a rounding gap in ETH amount\r\n            newDustBalance = (usedTime * claimLimit / grant.claimInterval) - requestClaimAmount;\r\n          }\r\n          else {\r\n            newDustBalance = 0;\r\n          }\r\n          require(usedTime <= availableTime, \"calculation error: usedTime > availableTime\");\r\n\r\n          newClaimTime = baseClaimTime + usedTime;\r\n          claimAmount = requestAmount;\r\n        }\r\n        else {\r\n          // sender requested all available funds\r\n          usedTime = availableTime;\r\n          newClaimTime = time;\r\n          newDustBalance = 0;\r\n        }\r\n      }\r\n    }\r\n  }\r\n\r\n\r\n  //## Public view functions\r\n\r\n  function getVaultToken() public view returns (address) {\r\n    return _vaultTokenAddr;\r\n  }\r\n\r\n  function getGrants() public view returns (Grant[] memory) {\r\n    IFundingVaultToken vaultToken = IFundingVaultToken(_vaultTokenAddr);\r\n    uint64 grantCount = uint64(vaultToken.totalSupply());\r\n    Grant[] memory grants = new Grant[](grantCount);\r\n    for(uint64 grantIdx = 0; grantIdx < grantCount; grantIdx++) {\r\n      uint64 grantId = uint64(vaultToken.tokenByIndex(grantIdx));\r\n      grants[grantIdx] = _grants[grantId];\r\n    }\r\n    return grants;\r\n  }\r\n\r\n  function getGrant(uint64 grantId) public view returns (Grant memory) {\r\n    require(_grants[grantId].claimTime > 0, \"grant not found\");\r\n    return _grants[grantId];\r\n  }\r\n\r\n  function getGrantLockTime(uint32 grantId) public view returns (uint64) {\r\n    require(_grants[grantId].claimTime > 0, \"grant not found\");\r\n    if(_grantClaimLock[grantId] > uint64(block.timestamp)) {\r\n      return _grantClaimLock[grantId] - uint64(block.timestamp);\r\n    }\r\n    else {\r\n      return 0;\r\n    }\r\n  }\r\n\r\n  function getClaimableBalance() public view returns (uint256) {\r\n    uint256 claimableAmount = 0;\r\n    IFundingVaultToken vaultToken = IFundingVaultToken(_vaultTokenAddr);\r\n\r\n    uint64 grantCount = uint64(vaultToken.balanceOf(_msgSender()));\r\n    for(uint64 grantIdx = 0; grantIdx < grantCount; grantIdx++) {\r\n      uint64 grantId = uint64(vaultToken.tokenOfOwnerByIndex(_msgSender(), grantIdx));\r\n      claimableAmount += _claimableBalance(grantId);\r\n    }\r\n    return claimableAmount;\r\n  }\r\n\r\n  function getClaimableBalance(uint64 grantId) public view returns (uint256) {\r\n    require(_grants[grantId].claimTime > 0, \"grant not found\");\r\n    return _claimableBalance(grantId);\r\n  }\r\n\r\n  function _claimableBalance(uint64 grantId) internal view returns (uint256) {\r\n    (uint256 claimAmount, , , ) = _calculateClaim(grantId, 0);\r\n    return claimAmount;\r\n  }\r\n\r\n  function getManagerCooldown(address manager) public view returns (uint64) {\r\n    if(_managerCooldown[manager] <= _getTime()) {\r\n      return 0;\r\n    }\r\n    return _managerCooldown[manager] - _getTime();\r\n  }\r\n\r\n  //## Grant managemnet functions (Grant Manager)\r\n\r\n  function createGrant(address addr, uint128 amount, uint64 interval) public onlyRole(GRANT_MANAGER_ROLE) nonReentrant {\r\n    require(amount > 0 && interval > 0, \"invalid grant\");\r\n    uint256 grantQuota = uint256(amount) * 1 ether / interval;\r\n    uint256 managerQuota = uint256(_managerLimitAmount) * 1 ether / _managerLimitInterval;\r\n\r\n    if(!hasRole(DEFAULT_ADMIN_ROLE, _msgSender())) {\r\n      _requireNotPaused();\r\n      // check if granted amount exceeds \r\n      require(interval <= _managerLimitInterval, \"interval exceeds manager limits\");\r\n      require(amount <= _managerLimitAmount, \"amount exceeds manager limits\");\r\n      require(grantQuota <= managerQuota, \"quota exceeds manager limits\");\r\n      require(_managerCooldown[_msgSender()] < _getTime() + _managerGrantCooldownLock, \"manager cooldown\");\r\n    }\r\n    if(_managerCooldown[_msgSender()] < _getTime()) {\r\n      _managerCooldown[_msgSender()] = _getTime();\r\n    }\r\n    _managerCooldown[_msgSender()] += uint64(_managerGrantCooldown * grantQuota / managerQuota) + 1;\r\n\r\n    uint64 grantId = _grantIdCounter++;\r\n    _grants[grantId] = Grant({\r\n      claimTime: _getTime() - interval,\r\n      claimInterval: interval,\r\n      claimLimit: amount,\r\n      dustBalance: 0\r\n    });\r\n    IFundingVaultToken(_vaultTokenAddr).tokenUpdate(grantId, addr);\r\n\r\n    emit GrantUpdate(grantId, amount, interval);\r\n  }\r\n\r\n  function updateGrant(uint64 grantId, uint128 amount, uint64 interval) public onlyRole(GRANT_MANAGER_ROLE) nonReentrant {\r\n    require(_grants[grantId].claimTime > 0, \"grant not found\");\r\n    require(amount > 0 && interval > 0, \"invalid grant\");\r\n\r\n    uint256 oldQuota = uint256(_grants[grantId].claimLimit) * 1 ether / _grants[grantId].claimInterval;\r\n    uint256 newQuota = uint256(amount) * 1 ether / interval;\r\n    uint256 managerQuota = uint256(_managerLimitAmount) * 1 ether / _managerLimitInterval;\r\n    bool isIncrease = newQuota > oldQuota;\r\n\r\n    if(!hasRole(DEFAULT_ADMIN_ROLE, _msgSender())) {\r\n      _requireNotPaused();\r\n      // check if granted amount exceeds \r\n      require(interval <= _managerLimitInterval, \"interval exceeds manager limits\");\r\n      require(amount <= _managerLimitAmount, \"amount exceeds manager limits\");\r\n      require(newQuota <= managerQuota, \"quota exceeds manager limits\");\r\n\r\n      if(isIncrease) {\r\n        require(_managerCooldown[_msgSender()] < _getTime() + _managerGrantCooldownLock, \"manager cooldown\");\r\n      }\r\n    }\r\n    if(isIncrease) {\r\n      if(_managerCooldown[_msgSender()] < _getTime()) {\r\n        _managerCooldown[_msgSender()] = _getTime();\r\n      }\r\n      _managerCooldown[_msgSender()] += uint64(_managerGrantCooldown * (newQuota - oldQuota) / managerQuota) + 1;\r\n    }\r\n\r\n    _grants[grantId].claimInterval = interval;\r\n    _grants[grantId].claimLimit = amount;\r\n\r\n    emit GrantUpdate(grantId, amount, interval);\r\n  }\r\n\r\n  function transferGrant(uint64 grantId, address addr) public onlyRole(GRANT_MANAGER_ROLE) nonReentrant {\r\n    require(_grants[grantId].claimTime > 0, \"grant not found\");\r\n\r\n    uint256 grantQuota = uint256(_grants[grantId].claimLimit) * 1 ether / _grants[grantId].claimInterval;\r\n    uint256 managerQuota = uint256(_managerLimitAmount) * 1 ether / _managerLimitInterval;\r\n\r\n    if(!hasRole(DEFAULT_ADMIN_ROLE, _msgSender())) {\r\n      _requireNotPaused();\r\n      // check if grant quota exceeds manager limit\r\n      require(grantQuota <= managerQuota, \"quota exceeds manager limits\");\r\n      require(_managerCooldown[_msgSender()] < _getTime() + _managerGrantCooldownLock, \"manager cooldown\");\r\n    }\r\n    if(_managerCooldown[_msgSender()] < _getTime()) {\r\n      _managerCooldown[_msgSender()] = _getTime();\r\n    }\r\n    _managerCooldown[_msgSender()] += uint64(_managerGrantCooldown * grantQuota / managerQuota);\r\n\r\n    IFundingVaultToken(_vaultTokenAddr).tokenUpdate(grantId, addr);\r\n  }\r\n\r\n  function removeGrant(uint64 grantId) public onlyRole(GRANT_MANAGER_ROLE) nonReentrant {\r\n    require(_grants[grantId].claimTime > 0, \"grant not found\");\r\n\r\n    if(!hasRole(DEFAULT_ADMIN_ROLE, _msgSender())) {\r\n      _requireNotPaused();\r\n    }\r\n\r\n    IFundingVaultToken(_vaultTokenAddr).tokenUpdate(grantId, address(0));\r\n    delete _grants[grantId];\r\n  }\r\n\r\n  function lockGrant(uint64 grantId, uint64 lockTime) public nonReentrant {\r\n    require(_grants[grantId].claimTime > 0, \"grant not found\");\r\n    require(\r\n      _msgSender() == _ownerOf(grantId) || \r\n      hasRole(GRANT_MANAGER_ROLE, _msgSender())\r\n    , \"not grant owner or manager\");\r\n\r\n    if(!hasRole(DEFAULT_ADMIN_ROLE, _msgSender())) {\r\n      _requireNotPaused();\r\n    }\r\n\r\n    _lockGrant(grantId, lockTime);\r\n  }\r\n\r\n  function notifyGrantTransfer(uint64 grantId) public {\r\n    require(_msgSender() == _vaultTokenAddr, \"not token contract\");\r\n    _lockGrant(grantId, _claimTransferLockTime);\r\n  }\r\n\r\n  function _lockGrant(uint64 grantId, uint64 lockTime) internal {\r\n    uint64 lockTimeout = _getTime() + lockTime;\r\n    if(lockTimeout > _grantClaimLock[grantId] || hasRole(DEFAULT_ADMIN_ROLE, _msgSender())) {\r\n      _grantClaimLock[grantId] = lockTimeout;\r\n    }\r\n    else {\r\n      lockTime = 0;\r\n      lockTimeout = _grantClaimLock[grantId];\r\n    }\r\n    emit GrantLock(grantId, lockTime, lockTimeout);\r\n  }\r\n\r\n  \r\n  //## Public claim functions\r\n\r\n  function claim(uint256 amount) public whenNotPaused nonReentrant returns (uint256) {\r\n    uint256 claimAmount = _claimFrom(_msgSender(), amount, _msgSender());\r\n    if(amount > 0) {\r\n      require(claimAmount == amount, \"claim failed\");\r\n    }\r\n    else {\r\n      require(claimAmount > 0, \"claim failed\");\r\n    }\r\n    return claimAmount;\r\n  }\r\n\r\n  function claim(uint64 grantId, uint256 amount) public whenNotPaused nonReentrant returns (uint256) {\r\n    require(_grants[grantId].claimTime > 0, \"grant not found\");\r\n    require(_ownerOf(grantId) == _msgSender(), \"not owner of this grant\");\r\n\r\n    uint256 claimAmount = _claim(grantId, amount, _msgSender());\r\n    if(amount > 0) {\r\n      require(claimAmount == amount, \"claim failed\");\r\n    }\r\n    else {\r\n      require(claimAmount > 0, \"claim failed\");\r\n    }\r\n    return claimAmount;\r\n  }\r\n\r\n  function claimTo(uint256 amount, address target) public whenNotPaused nonReentrant returns (uint256) {\r\n    uint256 claimAmount = _claimFrom(_msgSender(), amount, target);\r\n    if(amount > 0) {\r\n      require(claimAmount == amount, \"claim failed\");\r\n    }\r\n    else {\r\n      require(claimAmount > 0, \"claim failed\");\r\n    }\r\n    return claimAmount;\r\n  }\r\n\r\n  function claimTo(uint64 grantId, uint256 amount, address target) public whenNotPaused nonReentrant returns (uint256) {\r\n    require(_grants[grantId].claimTime > 0, \"grant not found\");\r\n    require(_ownerOf(grantId) == _msgSender(), \"not owner of this grant\");\r\n\r\n    uint256 claimAmount = _claim(grantId, amount, target);\r\n    if(amount > 0) {\r\n      require(claimAmount == amount, \"claim failed\");\r\n    }\r\n    else {\r\n      require(claimAmount > 0, \"claim failed\");\r\n    }\r\n    return claimAmount;\r\n  }\r\n\r\n  function _claimFrom(address owner, uint256 amount, address target) internal returns (uint256) {\r\n    uint256 claimAmount = 0;\r\n    IFundingVaultToken vaultToken = IFundingVaultToken(_vaultTokenAddr);\r\n\r\n    uint64 grantCount = uint64(vaultToken.balanceOf(owner));\r\n    for(uint64 grantIdx = 0; grantIdx < grantCount; grantIdx++) {\r\n      uint64 grantId = uint64(vaultToken.tokenOfOwnerByIndex(owner, grantIdx));\r\n      uint256 claimed = _claim(grantId, amount, target);\r\n      claimAmount += claimed;\r\n      if(amount > 0) {\r\n        if(amount == claimed) {\r\n          break;\r\n        }\r\n        else {\r\n          amount -= claimed;\r\n        }\r\n      }\r\n    }\r\n    return claimAmount;\r\n  }\r\n\r\n  function _claim(uint64 grantId, uint256 amount, address target) internal returns (uint256) {\r\n    (uint256 claimAmount, uint64 newClaimTime, uint256 newDustBalance, uint64 usedClaimTime) = _calculateClaim(grantId, amount);\r\n    if(claimAmount == 0) {\r\n      return 0;\r\n    }\r\n\r\n    // update grant struct\r\n    _grants[grantId].claimTime = newClaimTime;\r\n    _grants[grantId].dustBalance = newDustBalance;\r\n\r\n    // send claim amount to target\r\n    (bool sent, ) = payable(target).call{value: claimAmount}(\"\");\r\n    require(sent, \"failed to send ether\");\r\n\r\n    // emit claim event\r\n    emit GrantClaim(grantId, target, claimAmount, usedClaimTime);\r\n\r\n    return claimAmount;\r\n  }\r\n\r\n}\r\n",
  "sourcePath": "D:\\DEV\\_SDEV2\\_crypto-workspace\\funding-vault\\contracts\\FundingVaultV1.sol",
  "compiler": {
    "name": "solc",
    "version": "0.8.21+commit.d9974bed.Emscripten.clang"
  },
  "schemaVersion": "3.4.4",
  "updatedAt": "2023-08-18T23:08:46.197Z",
  "networkType": "ethereum",
  "devdoc": {
    "events": {
      "Paused(address)": {
        "details": "Emitted when the pause is triggered by `account`."
      },
      "RoleAdminChanged(bytes32,bytes32,bytes32)": {
        "details": "Emitted when `newAdminRole` is set as ``role``'s admin role, replacing `previousAdminRole` `DEFAULT_ADMIN_ROLE` is the starting admin for all roles, despite {RoleAdminChanged} not being emitted signaling this. _Available since v3.1._"
      },
      "RoleGranted(bytes32,address,address)": {
        "details": "Emitted when `account` is granted `role`. `sender` is the account that originated the contract call, an admin role bearer except when using {AccessControl-_setupRole}."
      },
      "RoleRevoked(bytes32,address,address)": {
        "details": "Emitted when `account` is revoked `role`. `sender` is the account that originated the contract call:   - if using `revokeRole`, it is the admin role bearer   - if using `renounceRole`, it is the role bearer (i.e. `account`)"
      },
      "Unpaused(address)": {
        "details": "Emitted when the pause is lifted by `account`."
      }
    },
    "kind": "dev",
    "methods": {
      "getRoleAdmin(bytes32)": {
        "details": "Returns the admin role that controls `role`. See {grantRole} and {revokeRole}. To change a role's admin, use {_setRoleAdmin}."
      },
      "grantRole(bytes32,address)": {
        "details": "Grants `role` to `account`. If `account` had not been already granted `role`, emits a {RoleGranted} event. Requirements: - the caller must have ``role``'s admin role. May emit a {RoleGranted} event."
      },
      "hasRole(bytes32,address)": {
        "details": "Returns `true` if `account` has been granted `role`."
      },
      "paused()": {
        "details": "Returns true if the contract is paused, and false otherwise."
      },
      "renounceRole(bytes32,address)": {
        "details": "Revokes `role` from the calling account. Roles are often managed via {grantRole} and {revokeRole}: this function's purpose is to provide a mechanism for accounts to lose their privileges if they are compromised (such as when a trusted device is misplaced). If the calling account had been revoked `role`, emits a {RoleRevoked} event. Requirements: - the caller must be `account`. May emit a {RoleRevoked} event."
      },
      "revokeRole(bytes32,address)": {
        "details": "Revokes `role` from `account`. If `account` had been granted `role`, emits a {RoleRevoked} event. Requirements: - the caller must have ``role``'s admin role. May emit a {RoleRevoked} event."
      },
      "supportsInterface(bytes4)": {
        "details": "See {IERC165-supportsInterface}."
      }
    },
    "version": 1
  },
  "userdoc": {
    "kind": "user",
    "methods": {},
    "version": 1
  }
}