{
  "contractName": "FundingVaultProxy",
  "abi": [
    {
      "inputs": [],
      "stateMutability": "nonpayable",
      "type": "constructor"
    },
    {
      "stateMutability": "payable",
      "type": "fallback",
      "payable": true
    },
    {
      "stateMutability": "payable",
      "type": "receive",
      "payable": true
    },
    {
      "inputs": [],
      "name": "implementation",
      "outputs": [
        {
          "internalType": "address",
          "name": "",
          "type": "address"
        }
      ],
      "stateMutability": "view",
      "type": "function",
      "constant": true
    },
    {
      "inputs": [
        {
          "internalType": "address",
          "name": "addr",
          "type": "address"
        }
      ],
      "name": "upgradeTo",
      "outputs": [],
      "stateMutability": "nonpayable",
      "type": "function"
    },
    {
      "inputs": [
        {
          "internalType": "address",
          "name": "addr",
          "type": "address"
        },
        {
          "internalType": "bytes",
          "name": "data",
          "type": "bytes"
        }
      ],
      "name": "upgradeToAndCall",
      "outputs": [],
      "stateMutability": "nonpayable",
      "type": "function"
    }
  ],
  "bytecode": "0x608060405234801561000f575f80fd5b505f80546001600160a01b031916331790556104bb8061002e5f395ff3fe608060405260043610610037575f3560e01c80633659cfe61461004e5780634f1ef2861461006d5780635c60da1b1461008c57610046565b36610046576100446100b7565b005b6100446100b7565b348015610059575f80fd5b5061004461006836600461035a565b61011f565b348015610078575f80fd5b50610044610087366004610373565b610159565b348015610097575f80fd5b50600154604080516001600160a01b039092168252519081900360200190f35b6001546001600160a01b03166101085760405162461bcd60e51b815260206004820152601160248201527037379034b6b83632b6b2b73a30ba34b7b760791b60448201526064015b60405180910390fd5b60015461011d906001600160a01b03166101d7565b565b5f546001600160a01b0316330361014e57600180546001600160a01b0319166001600160a01b03831617905550565b6101566100b7565b50565b5f546001600160a01b031633036101ca57600180546001600160a01b0319166001600160a01b038516179055604080516020601f84018190048102820181019092528281526101c49185919085908590819084018382808284375f920191909152506101f592505050565b50505050565b6101d26100b7565b505050565b365f80375f80365f845af43d5f803e8080156101f1573d5ff35b3d5ffd5b606061021a838360405180606001604052806027815260200161045f60279139610221565b9392505050565b60605f80856001600160a01b03168560405161023d9190610411565b5f60405180830381855af49150503d805f8114610275576040519150601f19603f3d011682016040523d82523d5f602084013e61027a565b606091505b509150915061028b86838387610295565b9695505050505050565b606083156103035782515f036102fc576001600160a01b0385163b6102fc5760405162461bcd60e51b815260206004820152601d60248201527f416464726573733a2063616c6c20746f206e6f6e2d636f6e747261637400000060448201526064016100ff565b508161030d565b61030d8383610315565b949350505050565b8151156103255781518083602001fd5b8060405162461bcd60e51b81526004016100ff919061042c565b80356001600160a01b0381168114610355575f80fd5b919050565b5f6020828403121561036a575f80fd5b61021a8261033f565b5f805f60408486031215610385575f80fd5b61038e8461033f565b9250602084013567ffffffffffffffff808211156103aa575f80fd5b818601915086601f8301126103bd575f80fd5b8135818111156103cb575f80fd5b8760208285010111156103dc575f80fd5b6020830194508093505050509250925092565b5f5b838110156104095781810151838201526020016103f1565b50505f910152565b5f82516104228184602087016103ef565b9190910192915050565b602081525f825180602084015261044a8160408501602087016103ef565b601f01601f1916919091016040019291505056fe416464726573733a206c6f772d6c6576656c2064656c65676174652063616c6c206661696c6564a26469706673582212204e97c03e185bb6da3c1f90d123a7fce8b69fdda67b6c83772d1b5b4115997b1064736f6c63430008150033",
  "immutableReferences": {},
  "source": "// SPDX-License-Identifier: MIT\r\npragma solidity ^0.8.21;\r\n\r\nimport \"@openzeppelin/contracts/utils/Address.sol\";\r\nimport \"./FundingVaultProxyStorage.sol\";\r\n\r\n\r\ncontract FundingVaultProxy is FundingVaultProxyStorage {\r\n\r\n    constructor() {\r\n        _manager = msg.sender;\r\n    }\r\n\r\n    modifier ifManager() {\r\n        if (msg.sender == _manager) {\r\n            _;\r\n        } else {\r\n            _fallback();\r\n        }\r\n    }\r\n\r\n    function _fallback() internal {\r\n        require(_implementation != address(0), \"no implementation\");\r\n        _delegate(_implementation);\r\n    }\r\n\r\n    function _delegate(address impl) internal virtual {\r\n        assembly {\r\n            calldatacopy(0, 0, calldatasize())\r\n            let result := delegatecall(gas(), impl, 0, calldatasize(), 0, 0)\r\n            returndatacopy(0, 0, returndatasize())\r\n            switch result\r\n            case 0 {\r\n                revert(0, returndatasize())\r\n            }\r\n            default {\r\n                return(0, returndatasize())\r\n            }\r\n        }\r\n    }\r\n\r\n    fallback() external payable {\r\n        _fallback();\r\n    }\r\n\r\n    receive() external payable {\r\n        _fallback();\r\n    }\r\n\r\n    function implementation() public view returns (address) {\r\n        return _implementation;\r\n    }\r\n\r\n    function upgradeTo(address addr) external ifManager {\r\n        _implementation = addr;\r\n    }\r\n\r\n    function upgradeToAndCall(address addr, bytes calldata data) external ifManager {\r\n        _implementation = addr;\r\n        Address.functionDelegateCall(addr, data);\r\n    }\r\n\r\n}\r\n",
  "sourcePath": "D:\\DEV\\_SDEV2\\_crypto-workspace\\funding-vault\\contracts\\FundingVaultProxy.sol",
  "compiler": {
    "name": "solc",
    "version": "0.8.21+commit.d9974bed.Emscripten.clang"
  },
  "schemaVersion": "3.4.4",
  "updatedAt": "2023-08-18T23:08:46.171Z",
  "networkType": "ethereum",
  "devdoc": {
    "kind": "dev",
    "methods": {},
    "version": 1
  },
  "userdoc": {
    "kind": "user",
    "methods": {},
    "version": 1
  }
}